:020000040000FA
:06000000F9EF0AF0120006
:020006000000F8
:08000800D9CFE6FFE1CFD9FFDB
:10001000020EE126FD0EDBCFE6FFFE0EDBCFE6FF94
:1000200055DBF3CF14F0F4CF15F0F3CFE6FFF4CFA8
:10003000E6FF15D8E552E552E552E552020EE15CC5
:1000400002E2E16AE552E16EE552E7CFD9FF120024
:100050000001606B616B626B636B12001200D9CFA1
:10006000E6FFE1CFD9FF030EE126DF6A010EDB6A6E
:10007000020EDB6AFB0EDBCFE9FFFC0EDBCFEAFFF3
:10008000EF6AFB0EDBCFE9FFFC0EDBCFEAFFEE529F
:1000900060C0EEFF61C0EEFF62C0EEFFDF6A010EDE
:1000A000DB6A020EDB6AD9CFE9FFDACFEAFF200E66
:1000B000EE5C000EEE58000EEF581FE2FB0EDBCF99
:1000C000E9FFFC0EDBCFEAFF050EE926000EEA226F
:1000D000E9CF14F0EACF15F0DB50E924E96E010E08
:1000E000DB50EA20EA6EEF6AD9CFE9FFDACFEAFF08
:1000F000EE2A000EEE22EE22D6D7FB0EDBCFE9FF72
:10010000FC0EDBCFEAFF250EE926000EEA22EF6A9D
:10011000FD0EDBCFE9FFDB2AFE0EDBCFEAFF01E3BA
:10012000DB2AEF503A0801E048D2FD0EDBCFE9FFB1
:10013000DB2AFE0EDBCFEAFF01E3DB2AEF50E66E9F
:1001400049DAE552F3CF14F0F4CF15F0040ED8904D
:1001500014361536E804FBE1FB0EDBCFE9FFFC0E9D
:10016000DBCFEAFF1450EF26FD0EDBCFE9FFDB2AE1
:10017000FE0EDBCFEAFF01E3DB2AEF50E66E2ADA60
:10018000E552F3CF14F0FB0EDBCFE9FFFC0EDBCF23
:10019000EAFFF350EF26FD0EDBCFE9FFDB2AFE0E70
:1001A000DBCFEAFF01E3DB2AEF50E66E13DAE5521C
:1001B000F338146AF00B156E166AFB0EDBCFE9FFFD
:1001C000FC0EDBCFEAFFEE521450EE261550EE2265
:1001D0001650EE22FD0EDBCFE9FFDB2AFE0EDBCF51
:1001E000EAFF01E3DB2AEF50E66EF4D9E552F3CFE4
:1001F00015F0146A166AFB0EDBCFE9FFFC0EDBCFAD
:10020000EAFFEE521450EE261550EE221650EE2262
:10021000FD0EDBCFE9FFDB2AFE0EDBCFEAFF01E3B9
:10022000DB2AEF50E66ED6D9E552F3CF14F0F4CFC7
:1002300015F0040ED89014361536E804FBE1166A62
:10024000FB0EDBCFE9FFFC0EDBCFEAFFEE521450D2
:10025000EE261550EE221650EE22FD0EDBCFE9FF02
:10026000DB2AFE0EDBCFEAFF01E3DB2AEF50E66E6E
:10027000B1D9E552F3CF14F0F4CF15F0166AFB0EA6
:10028000DBCFE9FFFC0EDBCFEAFFEE52F350EE26A8
:100290001550EE221650EE22DF6A010EDB6A020EC6
:1002A000DB6AFD0EDBCFE9FFDB2AFE0EDBCFEAFFC8
:1002B00001E3DB2AEF50E66E8DD9E552F3CF14F05F
:1002C000F4CF15F0D89014361536166AD9CFE9FF59
:1002D000DACFEAFF1450EE261550EE221650EE2229
:1002E000FD0EDBCFE9FFDB2AFE0EDBCFEAFF01E3E9
:1002F000DB2AEF50E66E6ED9E552F4CF15F0166AA0
:10030000D9CFE9FFDACFEAFFF350EE261550EE22FF
:100310001650EE22FB0EDBCFE9FFFC0EDBCFEAFF2F
:10032000040EE926000EEA22DFCFEFFFDF6A010E9E
:10033000DB6A020EDB6AFB0EDBCFE9FFFC0EDBCFD4
:10034000EAFFEF50E824146E156A166AD9CFE9FF68
:10035000DACFEAFFE850EE5C1550EE581650EE5832
:1003600070E2FD0EDBCFE9FFDB2AFE0EDBCFEAFFFA
:1003700001E3DB2AEF50E66E2DD9E552F3CF19F0F9
:10038000F4CF1AF0040ED89019361A36E804FBE1BF
:10039000FB0EDBCFE9FFFC0EDBCFEAFF050EE92603
:1003A000000EEA22E9CF14F0EACF15F0DFCF16F005
:1003B000010EDBCF17F0020EDBCF18F0D890183209
:1003C00017321632E9501624E96EEA501720EA6E09
:1003D0001950EF26FD0EDBCFE9FFDB2AFE0EDBCF47
:1003E000EAFF01E3DB2AEF50E66EF4D8E552F3CFE3
:1003F00019F0FB0EDBCFE9FFFC0EDBCFEAFF050EA9
:10040000E926000EEA22DFCF16F0010EDBCF17F04F
:10041000020EDBCF18F0D890183217321632E9509E
:100420001624E96EEA501720EA6EF350EF26D9CF72
:10043000E9FFDACFEAFF020EEE26000EEE22EE22F0
:100440007AD7FD0EDBCFE9FFDB2AFE0EDBCFEAFF1A
:1004500001E3DB2AEF50E66EBDD8E552F3CF14F08E
:10046000F4CF15F0040ED89014361536E804FBE1ED
:10047000FB0EDBCFE9FFFC0EDBCFEAFF250EE92602
:10048000000EEA221450EF26FD0EDBCFE9FFDB2A37
:10049000FE0EDBCFEAFF01E3DB2AEF50E66E9AD8CF
:1004A000E552FB0EDBCFE9FFFC0EDBCFEAFF250EAA
:1004B000E926000EEA22F350EF26FB0EDBCFE9FF20
:1004C000FC0EDBCFEAFF040EE926000EEA22EF5015
:1004D000040874E10001606B616B626BFB0EDBCFA3
:1004E000E9FFFC0EDBCFEAFF050EE926000EEA224B
:1004F000EFCF14F0156A166A14AE02D015681668AC
:1005000014C0DFFF010E15C0DBFF020E16C0DBFFBB
:10051000180ED9CFE9FFDACFEAFFE8501F0BEECF74
:1005200014F0EECF15F0EECF16F006E0D8901436AA
:1005300015361636E806FAE114500001602715500A
:10054000612316506223FB0EDBCFE9FFFC0EDBCFED
:10055000EAFF050EE926000EEA22010EE926000E4A
:10056000EA22EFCF14F0156A166A14AE02D01568AD
:10057000166814C0DFFF010E15C0DBFF020E16C0A7
:10058000DBFF100ED9CFE9FFDACFEAFFE8501F0BEF
:10059000EECF14F0EECF15F0EECF16F006E0D890C7
:1005A000143615361636E806FAE1145000016027B5
:1005B000155061231650622301D0000E146E030EF5
:1005C000E15C02E2E16AE552E16E1450E552E7CFE8
:1005D000D9FF1200D9CFE6FFE1CFD9FFE652DF689D
:1005E000FE0EDB50460A4AE0030A46E0010A42E0FA
:1005F000070A3EE0010A3AE0030A36E0270A32E041
:10060000030A3AE0010A36E0070A32E0010A2EE066
:10061000030A2AE0580A24E0010A20E00F0A1CE03D
:10062000010A18E0030A14E0010A10E0070A0CE0CE
:10063000010A08E0030A04E0010A23E1DF6A22D08C
:10064000010E1DD0020E1BD0030E19D0040E17D0C0
:10065000050E15D0060E13D0070E11D0080E0FD0C0
:10066000090E0DD00F0E0BD00A0E09D00B0E07D0BD
:100670000C0E05D00D0E03D00E0E01D00F0EDF6E46
:1006800001D0DF68DF50156AF36E15C0F4FFE55244
:10069000E552E7CFD9FF1200000166C0F6FF662BD6
:1006A00067C0F7FF000E672368C0F8FF68230800E3
:1006B000F550E66E64C0E9FF65C0EAFF642B000EEA
:1006C0006523E552E750EF6EE7E11200600E146E0D
:1006D000150E156E000E166E00016351632B176E1A
:1006E000186A196A030E0C6E0D6A0E6A17C007F0BD
:1006F00018C008F019C009F029EC0AF004C017F07E
:1007000005C018F006C019F014500424F36E1550FB
:100710000520F46E16500620F86EF4CFF7FFF3CFE5
:10072000F6FF0900F5CF66F00900F5CF67F0080085
:10073000F5CF68F00001690E646F000E656FACDFE5
:10074000690E146E000E156E14C0F3FFF46E1200E5
:1007500012007DEF06F0D9CFE6FFE1CFD9FF470EBB
:10076000E12628EC00F0D9CFE6FFDACFE6FF04EC73
:1007700000F0E552E552040EDB046EE0040EDB509F
:10078000F2E1010EDBCF14F0020EDBCF15F0030E09
:10079000DBCF16F0176A000E145C800E1558000EA1
:1007A0001658000E1758DFE3010EDBCF18F0020ECB
:1007B000DBCF19F0030EDBCF1AF01B6AF80E185CC2
:1007C000FF0E1958010E1A58000E1B58CCE2DFCF4D
:1007D000E6FF010EDBCFE6FF020EDBCFE6FF030EE6
:1007E000DBCFE6FFD950260FE66E000EDA20E66E6C
:1007F000A1DA146E060EE15E1450460EDB6ADF507D
:10080000F36E460EDBCFF4FFF350F45CACE2D9504C
:10081000260F156EDACF16F0460EDB500F011524A9
:10082000E96E000EDA20EA6EEFCF14F0D950050F12
:10083000176EDACF18F0460EDB501724E96E000E63
:10084000DA20EA6EEF50145C04E02EEC00F0000EAB
:1008500006D0460EDB2AD3D72EEC00F0010E146E24
:10086000470EE15C02E2E16AE552E16E1450E552A6
:10087000E7CFD9FF1200D9CFE6FFE1CFD9FF6D0E48
:10088000E12628EC00F065DF660EDB6A800EF36E71
:10089000670EF3CFDBFF680EDB6A660EDBCF14F06A
:1008A000670EDBCF15F0680EDBCF16F0400E142676
:1008B000000E15221622690E14C0DBFF6A0E15C049
:1008C000DBFF6B0E16C0DBFFD950260FE66E000E65
:1008D000DA20E66E8FDAE552E552D9CFE6FFDACFBD
:1008E000E6FF04EC00F0E552E552040EDB0401E102
:1008F000C8D1040EDB5001E0BBD1010EDBCF14F0F8
:10090000020EDBCF15F0030EDBCF16F0176A000ED8
:10091000145C800E1558000E1658000E175801E290
:1009200074D1010EDBCF18F0020EDBCF19F0030EED
:10093000DBCF1AF01B6AF80E185CFF0E1958010E77
:100940001A58000E1B5801E360D1690EDBCF14F07A
:100950006A0EDBCF15F06B0EDBCF16F0D950010F0E
:10096000E96EDACFEAFF1450EE5C1550EE581650DF
:10097000EE5801E3FDD0DFCF17F0186A196AD9509D
:10098000010FE96EDACFEAFFEE501724146EEE5035
:100990001820156EEE501920166ED950690FE96EA9
:1009A000DACFEAFF1450EE5C1550EE581650EE58B0
:1009B00033E3DFCFE6FFD950050FE66E000EDA20F5
:1009C000E66ED950260F166EDACF17F0010EDBCF88
:1009D0001BF0020EDBCF1CF0030EDBCF1DF0D95055
:1009E000660FE96EDACFEAFFEE501B5C186EEE5030
:1009F0001C58196EEE501D581A6E16501824146E9D
:100A0000DA501920156E14C0E6FFE66E11DA1E6E7C
:100A1000050EE15E1E5061D7690EDBCF17F06A0E3E
:100A2000DBCF18F06B0EDBCF19F0D950010FE96E58
:100A3000DACFEAFFEE50175C146EEE501858156EC0
:100A4000EE501958166E6C0E14C0DBFFDBCFE6FFBC
:100A5000D950050FE66E000EDA20E66ED950260F4B
:100A6000166EDACF17F0010EDBCF1BF0020EDBCFD4
:100A70001CF0030EDBCF1DF0D950660FE96EDACF04
:100A8000EAFFEE501B5C186EEE501C58196EEE50CB
:100A90001D581A6E16501824146EDA501920156E4F
:100AA00014C0E6FFE66EC4D91E6E050EE15E1E5050
:100AB000400EE66E660EDBCFE6FF670EDBCFE6FF8D
:100AC000680EDBCFE6FFD950260FE66E000EDA2067
:100AD000E66E58D9146E060EE15E1450D950660FBA
:100AE000E96EDACFEAFF400EEE26000EEE22EE228D
:100AF000660EDBCF14F0670EDBCF15F0680EDBCF90
:100B000016F0400E1426000E15221622690E14C08F
:100B1000DBFF6A0E15C0DBFF6B0E16C0DBFFD95082
:100B2000260FE66E000EDA20E66E64D9E552E55235
:100B30006C0EDB50DF5CE66ED950050F166EDACF17
:100B400017F06C0EDB5000011624146E000EDA2034
:100B5000156E14C0E6FFE66ED950260FE66E000E45
:100B6000DA20E66E65D9186E050EE15E1850B5D62E
:100B7000400EE66E660EDBCFE6FF670EDBCFE6FFCC
:100B8000680EDBCFE6FFD950260FE66E000EDA20A6
:100B9000E66EF8D8146E060EE15E1450D950260F9A
:100BA000E66E000EDA20E66E25D9E552E552010E1A
:100BB000DBCF14F0020EDBCF15F0030EDBCF16F007
:100BC000176AC00E1416176A660E14C0DBFF670E94
:100BD00015C0DBFF680E16C0DBFF660EDBCF14F01E
:100BE000670EDBCF15F0680EDBCF16F0400E142633
:100BF000000E15221622690E14C0DBFF6A0E15C006
:100C0000DBFF6B0E16C0DBFF70D6010EDBCF14F0DE
:100C1000020EDBCF15F0030EDBCF16F0176AF80ECD
:100C2000145CFF0E1558010E1658000E175820E3DD
:100C3000400EE66E660EDBCFE6FF670EDBCFE6FF0B
:100C4000680EDBCFE6FFD950260FE66E000EDA20E5
:100C5000E66E98D8146E060EE15E1450D950260F39
:100C6000E66E000EDA20E66EC5D8E552E55209D0F0
:100C7000D9CFE6FFDACFE6FF04EC00F0E552E5520B
:100C800034D62EEC00F06D0EE15C02E2E16AE55232
:100C9000E16EE552E7CFD9FF1200D9CFE6FFE1CFF1
:100CA000D9FF400EE126E7DD56DD000917E0EE0E24
:100CB000F36E050EF3CFDBFF400EE66EE66A800EA4
:100CC000E66EE66AD9CFE6FFDACFE6FF5BD8146EB0
:100CD000060EE15E14503FDD000902E0000E01D077
:100CE000010E146E400EE15C02E2E16AE552E16E33
:100CF0001450E552E7CFD9FF1200D9CFE6FFE1CF7C
:100D0000D9FFE652DF6AF66A800EF76EF86AA684AB
:100D1000A688DF50DF2A5F0806E362D8040EF726B4
:100D2000000EF822F6D7A694A698E552E552E7CF32
:100D3000D9FF1200D9CFE6FFE1CFD9FFE652DF6A33
:100D4000FA0EDBCFF6FFFB0EDBCFF7FFFC0EDBCF9F
:100D5000F8FFDF50DF2A146EF90EDB50145C0DE251
:100D60000900FD0EDBCFE9FFDB2AFE0EDBCFEAFF39
:100D700001E3DB2AF5CFEFFFECD7E552E552E7CFF1
:100D8000D9FF1200D9CFE6FFE1CFD9FFE652DF6AE3
:100D9000FA0EDBCFF6FFFB0EDBCFF7FFFC0EDBCF4F
:100DA000F8FF400EDF5C14E2F90EDB50DF5C0CE272
:100DB000FD0EDBCFE9FFDB2AFE0EDBCFEAFF01E30E
:100DC000DB2AEF50F56E01D0F5680D00DF2AE9D778
:100DD0000A00A68405D8E552E552E7CFD9FF1200F4
:100DE000F29E550EA76EAA0EA76EA682A6B2FED7D9
:100DF000F28E1200D9CFE6FFE1CFD9FFE652DF6ACB
:100E0000DF6A400EDF5C0FE2FD0EDBCFE9FFFE0E76
:100E1000DBCFEAFFDF50E924E96E000EEA20EA6E3C
:100E2000EF68DF2AEED7E552E552E7CFD9FF12008F
:100E3000D9CFE6FFE1CFD9FFE652DF6AFA0EDB50E9
:100E4000DF5C19E2FB0EDBCFE9FFDB2AFC0EDBCF18
:100E5000EAFF01E3DB2AEF50E66EFD0EDBCFE9FF90
:100E6000DB2AFE0EDBCFEAFF01E3DB2AE552E75087
:100E7000EF6EDF2AE3D7E552E552E7CFD9FF120044
:100E80003A30303030303030314646003A3031463A
:100E9000464646303046423036003A3031464646C5
:100EA00045303046463033003A30314646464430CD
:100EB0003046323131003A303146464643303037E1
:100EC000313933003A3031464646423030464630BA
:100ED00036003A30314646464130303132463400F1
:100EE0003A303146464639303046353132003A30B4
:100EF0003146464638303041433543003A3032308F
:100F00003030303034303030314639003A303238D9
:100F10003131453030313230303444003A304538A8
:100F20003131303030453535324535434644414620
:100F3000463131303031323030303044303132307F
:100F4000303938003A30413831303630304441435E
:100F50004645344646453243464441464645363585
:100F6000323231003A303638313030303034304679
:100F70003046424437313230303635003A3130383D
:100F800030463030303030463046383641303139F6
:100F90004331364543343046303846454334304695
:100FA00030384445433342003A30363830454130DA
:100FB00030314345453030463032434545374300B4
:100FC0003A304138304530303046333530453936A7
:100FD0003031323030454536414643443743440092
:100FE0003A313038304430303030304630304530AF
:100FF000453031443831323030454136303032447A
:101000003045453641464344373632003A3036386B
:10101000304341303042303045463336453030453C
:10102000454133003A304138304330303036353086
:10103000373030304536363542424644373132302B
:10104000304433003A313038304230303046394461
:1010500037363743304636464636384330463746CD
:10106000463639433046384646303030313935001F
:101070003A3130383041303030363435333037451E
:1010800030303930304635353045453645363330E9
:101090003746384532363430374439003A31303803
:1010A00030393030304636464636314330463746A2
:1010B00046363243304638464630303031363335A6
:1010C00033303245313231003A3130383038303017
:1010D000303039303046364346363746304637436F
:1010E0004636384630463843463639463036304341
:1010F000303644003A3130383037303030303930E3
:101100003030393030463535303633364630393088
:10111000304635353036343646303930304144008B
:101120003A31303830363030303039303030393094
:10113000304635353045393645303930304635352D
:101140003045413645303930304233003A3130385D
:10115000303530303046353530363036463039303F
:101160003046353530363136463039303046353513
:1011700030363236464346003A313038303430303B
:1011800030303930304635353036363646303345F6
:1011900031363536373031443033444430303930ED
:1011A000303736003A313038303330303038303044
:1011B0004546373645303030454638364530303094
:1011C00031303930304635353036353646423600E6
:1011D0003A303438303243303032393045463636A2
:1011E000454235003A3032383032393030303030E4
:1011F000303535003A3036383031383030384345C4
:101200004634304630313230304135003A303638AD
:101210003030383030383345463430463031323073
:10122000304245003A30363830303030303735458E
:101230004634304630313230304434003A30363083
:10124000303138303030434546343046303132303A
:10125000304135003A303630303038303030344577
:101260004634304630313230304244003A30363045
:10127000303030303037354546343046303132301A
:10128000303534003A303230303030303430303075
:10129000304641000D0A4641494C4544000D0A5074
:0E12A0004153530054657374204D6F64650014
:0212AE008B8033
:1012B0008B821200D9CFE6FFE1CFD9FFFC0EDBCF46
:1012C000F6FFFD0EDBCFF7FFFE0EDBCFF8FF0800C9
:1012D000F55016E0D950FC0FE96EFF0EDA20EA6EE9
:1012E000EFCFF6FFEE2AEFCFF7FF000EEE22EFCFA3
:1012F000F8FFEE220800F550E66E24D8E552DED75E
:10130000E552E7CFD9FF1200D9CFE6FFE1CFD9FFF1
:10131000FD0EDBCFE9FFFE0EDBCFEAFFEF500EE064
:10132000FD0EDBCFE9FFDB2AFE0EDBCFEAFF01E398
:10133000DB2AEF50E66E06D8E552EAD7E552E7CF52
:10134000D9FF1200D9CFE6FFE1CFD9FFE652080E50
:10135000DF6EFE0EDBCFA5F08B908B940001A5BF56
:101360008B848B92010EE66E10D8E5528B82010EB3
:10137000E66E0BD8E552A537DF06DF50EEE18B8035
:10138000E552E552E7CFD9FF1200D9CFE6FFE1CF12
:10139000D9FFFE0EDBCFF3FFDB06F350000906E0BA
:1013A000280EE66E07EC0BF0E552F3D7E552E7CFD7
:0413B000D9FF12004F
:0C13B400060EF66E000EF76E000EF86ECE
:1013C00000010900F550A06F0900F550A16F03E17D
:1013D000A06701D03DD00900F5509B6F0900F55082
:1013E0009C6F0900F5509D6F09000900F550E96EEA
:1013F0000900F550EA6E090009000900F5509E6FDA
:101400000900F5509F6F09000900F6CFA2F0F7CF51
:10141000A3F0F8CFA4F09BC0F6FF9CC0F7FF9DC0DF
:10142000F8FF00019E5302E19F5307E00900F550C9
:10143000EE6E9E07F8E29F07F9D7A2C0F6FFA3C0A1
:10144000F7FFA4C0F8FF0001A007000EA15BBFD703
:02145000120088
:0E14520009C013F008C012F007C011F00750D7
:101460000C02F4CF05F0F3CF04F008500D02F4CFD6
:1014700007F0F3CF06F00C02F3500526F4500622D5
:10148000E86A072211500D02F3500526F450062297
:10149000E86A072209500C02F3500626F45007228E
:1014A00009500D02086AE86A0822F3500726F45032
:1014B000082211500E02F3500626F4500722096A42
:1014C000E86A0822092212500E02F3500726F4504F
:1014D0000822E86A092213500E02F3500826F4503D
:0414E0000922000CD1
:0C14E40027D8A40EE66E120EE66E000E75
:1014F000E66E5AEC09F0E552E552E5524DEC06F085
:1015000000090CE09D0EE66E120EE66E000EE66E11
:101510005AEC09F0E552E552E552FFD7940EE66E1B
:10152000120EE66E000EE66E5AEC09F0E552E55238
:10153000E552FFD7C26A0F0EC16E0F0148694969B3
:10154000896A8A6A8B6A8B808B82926A936A946AB0
:1015500057EC09F0140EE66EC5EC09F0E5521200E6
:101560008412006C12005412003C12002412000C71
:101570001200F41100E41100D01100A41100781140
:10158000004C1100201100F41000C810009C100045
:101590007010004410002410000C1000E00F00C078
:1015A0000F00A80F007C0F00640F00440F001C0FF9
:1015B000000C0F00FC0E00EE0E00E00E00D20E003C
:1015C000C40E00B60E00A80E009A0E008C0E00800D
:0215D0000E000B
:0E15D200B00EF36E00EE00F00E0E01D8120007
:1015E000EA6002D0EE6AFCD7F350E9601200EE6ABE
:0215F000FCD726
:0E15F2001CEE00F02CEE00F0F86A019CDAEC22
:0E16000009F015EC0BF072EC0AF0FBD71200AB
:02160E00FF0ECD
:10161000E3501F6E1B0E00D001D0200EE76EE72EA8
:0A162000FED71F2EFAD700D01200EB
:02162A001200AC
:020000040001F9
:01FFF800AC5C
:01FFF900F512
:01FFFA0012F4
:01FFFB00FF06
:01FFFC007193
:01FFFD00F211
:01FFFE00FF03
:01FFFF00FB06
:00000001FF
