:020000040000FA
:0600000066EF07F012009C
:020006000000F8
:08000800D9CFE6FFE1CFD9FFDB
:10001000020EE126FD0EDBCFE6FFFE0EDBCFE6FF94
:1000200007DBF3CF00F0F4CF01F000C0E6FF01C022
:10003000E6FF15D8E552E552E552E552020EE15CC5
:1000400002E2E16AE552E16EE552E7CFD9FF120024
:100050000001606B616B626B636B12001200D9CFA1
:10006000E6FFE1CFD9FF030EE126DF6A010EDB6A6E
:10007000020EDB6AFB0EDBCFE9FFFC0EDBCFEAFFF3
:10008000EF6AFB0EDBCFE9FFFC0EDBCFEAFFEE529F
:1000900060C0EEFF61C0EEFF62C0EEFFDF6A010EDE
:1000A000DB6A020EDB6AD9CFE9FFDACFEAFF200E66
:1000B000EE5C000EEE58000EEF581FE2FB0EDBCF99
:1000C000E9FFFC0EDBCFEAFF050EE926000EEA226F
:1000D000E9CF00F0EACF01F0DB500024E96E010E19
:1000E000DB500120EA6EEF6AD9CFE9FFDACFEAFFF1
:1000F000EE2A000EEE22EE22D6D7FB0EDBCFE9FF72
:10010000FC0EDBCFEAFF250EE926000EEA22EF6A9D
:10011000FD0EDBCFE9FFDB2AFE0EDBCFEAFF01E3BA
:10012000DB2AEF503A0801E0D9D1FD0EDBCFE9FF21
:10013000DB2AFE0EDBCFEAFF01E3DB2AEF50E66E9F
:10014000DBD9E552F3CF00F0F4CF01F0040ED890E4
:1001500000360136E804FBE1FB0EDBCFE9FFFC0EC5
:10016000DBCFEAFF0050EF26FD0EDBCFE9FFDB2AF5
:10017000FE0EDBCFEAFF01E3DB2AEF50E66EBCD9CF
:10018000E552F3CF00F0FB0EDBCFE9FFFC0EDBCF37
:10019000EAFF0050EF26FD0EDBCFE9FFDB2AFE0E63
:1001A000DBCFEAFF01E3DB2AEF50E66EA5D9E5528B
:1001B000F3CF00F0F4CF01F00038006AF00B016ECD
:1001C000026AFB0EDBCFE9FFFC0EDBCFEAFFEE524B
:1001D0000050EE260150EE220250EE22FD0EDBCF43
:1001E000E9FFDB2AFE0EDBCFEAFF01E3DB2AEF505B
:1001F000E66E82D9E552F3CF00F0F4CF01F000C0F3
:1002000001F0006A026AFB0EDBCFE9FFFC0EDBCFD8
:10021000EAFFEE520050EE260150EE220250EE228E
:10022000FD0EDBCFE9FFDB2AFE0EDBCFEAFF01E3A9
:10023000DB2AEF50E66E60D9E552F3CF00F0F4CF41
:1002400001F0040ED89000360136E804FBE1026AA2
:10025000FB0EDBCFE9FFFC0EDBCFEAFFEE520050D6
:10026000EE260150EE220250EE22FD0EDBCFE9FF1A
:10027000DB2AFE0EDBCFEAFF01E3DB2AEF50E66E5E
:100280003BD9E552F3CF00F0F4CF01F0026AFB0E48
:10029000DBCFE9FFFC0EDBCFEAFFEE520050EE268B
:1002A0000150EE220250EE22DF6A010EDB6A020EDE
:1002B000DB6AFD0EDBCFE9FFDB2AFE0EDBCFEAFFB8
:1002C00001E3DB2AEF50E66E17D9E552F3CF00F0D9
:1002D000F4CF01F0D89000360136026AD9CFE9FF99
:1002E000DACFEAFF0050EE260150EE220250EE2255
:1002F000FD0EDBCFE9FFDB2AFE0EDBCFEAFF01E3D9
:10030000DB2AEF50E66EF8D8E552F3CF00F0F4CFD9
:1003100001F0026AD9CFE9FFDACFEAFF0050EE26FA
:100320000150EE220250EE22FB0EDBCFE9FFFC0E65
:10033000DBCFEAFF040EE926000EEA22DFCFEFFF53
:10034000DF6A010EDB6A020EDB6AFB0EDBCFE9FF20
:10035000FC0EDBCFEAFFEF50E824006E016A026A70
:10036000D9CFE9FFDACFEAFF0050EE5C0150EE583A
:100370000250EE5874E2FD0EDBCFE9FFDB2AFE0EE1
:10038000DBCFEAFF01E3DB2AEF50E66EB5D8E5529A
:10039000F3CF05F0F4CF06F0040ED89005360636FC
:1003A000E804FBE1FB0EDBCFE9FFFC0EDBCFEAFF4D
:1003B000050EE926000EEA22E9CF00F0EACF01F0AF
:1003C000DFCF02F0010EDBCF03F0020EDBCF04F033
:1003D000D89004320332023200500224E96E0150F8
:1003E0000320EA6E0550EF26FD0EDBCFE9FFDB2A86
:1003F000FE0EDBCFEAFF01E3DB2AEF50E66E7CD88E
:10040000E552F3CF05F0FB0EDBCFE9FFFC0EDBCFAF
:10041000EAFF050EE926000EEA22E9CF00F0EACF56
:1004200001F0DFCF02F0010EDBCF03F0020EDBCFD5
:1004300004F0D89004320332023200500224E96EF4
:1004400001500320EA6E0550EF26D9CFE9FFDACF3D
:10045000EAFF020EEE26000EEE22EE2276D7FD0E09
:10046000DBCFE9FFDB2AFE0EDBCFEAFF01E3DB2A6D
:10047000EF50E66E41D8E552F3CF00F0F4CF01F033
:10048000040ED89000360136E804FBE1FB0EDBCF0A
:10049000E9FFFC0EDBCFEAFF250EE926000EEA227B
:1004A0000050EF26FD0EDBCFE9FFDB2AFE0EDBCF8F
:1004B000EAFF01E3DB2AEF50E66E1ED8E552F3CFE8
:1004C00000F0FB0EDBCFE9FFFC0EDBCFEAFF250ED1
:1004D000E926000EEA220050EF2602D0000E00D0DE
:1004E000006E030EE15C02E2E16AE552E16E00504B
:1004F000E552E7CFD9FF1200D9CFE6FFE1CFD9FF10
:10050000E652DF68FE0EDB50460A6AE0030A65E049
:10051000010A60E0070A5BE0010A56E0030A51E0C5
:10052000270A4CE0030A47E0010A42E0070A3DE0DF
:10053000010A38E0030A33E0580A2EE0010A29E0F4
:100540000F0A24E0010A1FE0030A1AE0010A15E07D
:10055000070A10E0010A0BE0030A06E0010A02E0C4
:10056000DF6841D0DF6A3FD0010EDF6E3CD0020E63
:10057000DF6E39D0030EDF6E36D0040EDF6E33D05F
:10058000050EDF6E30D0060EDF6E2DD0070EDF6E4B
:100590002AD0080EDF6E27D0090EDF6E24D00A0E97
:1005A000DF6E21D00B0EDF6E1ED00C0EDF6E1BD067
:1005B0000D0EDF6E18D00E0EDF6E15D00F0EDF6E33
:1005C00012D00A0EDF6E0FD00B0EDF6E0CD00C0EA9
:1005D000DF6E09D00D0EDF6E06D00E0EDF6E03D07B
:1005E0000F0EDF6E00D0DF50006E016A00C0F3FF17
:1005F00001C0F4FF00D0E552E552E7CFD9FF120069
:10060000000166C0F6FF67C0F7FF662B000E672388
:100610000800F550E66E64C0E9FF65C0EAFF642B90
:10062000000E6523E552E750EF6E01E0E9D71200B6
:1006300000016351632BF66EF76AD890F636F736F1
:10064000580EF6260E0EF7220900F5CF66F00A00C6
:10065000F5CF67F00001680E646F000E656FD0DFA4
:10066000680E006E000E016E00C0F3FF01C0F4FFC3
:0406700000D01200A4
:0C0674003A303030303030303146460033
:100680003A3032313241323030313230303338006A
:100690003A30323132413030303132303033410053
:1006A0003A304331323934303030304545303046DD
:1006B0003030463045454536414541363246444462
:1006C000374442003A3034313239303030464244D7
:1006D00037313230303736003A313031323830301D
:1006E0003046383641303539434544454330384645
:1006F000303531454330394630383045433038465F
:10070000304630003A3038313237383030313345C6
:10071000453030463032334545303046303743007F
:100720003A30383132373030303030304536363587
:100730004242464437313230304646003A31303159
:100740003236303030363743304636464636384318
:1007500030463746463639433046384646303030E4
:1007600031363530374237003A313031323530307A
:100770003030374530303930304635353045453604
:1007800045363330374638453236343037463944CB
:10079000373745003A31303132343030303631433A
:1007A000304637464636324330463846463030309B
:1007B0003136333533303245313634353331440018
:1007C0003A313031323330303046364346363746B0
:1007D0003046374346363846304638434636394643
:1007E0003036304330463646463346003A313031B3
:1007F00032323030303039303046353530363336BD
:10080000463039303046353530363436463039307A
:1008100030303930303642003A31303132313030D8
:10082000303039303046353530453936453039305D
:100830003046353530454136453039303030393045
:10084000303731003A3130313230303030363036B6
:10085000463039303046353530363136463039302D
:10086000304635353036323646303930304339004F
:100870003A31303131463030304635353036363623
:1008800046303345313635363730314430334444E1
:100890003030393030463535304639003A31303134
:1008A00031453030304637364530303045463836C1
:1008B00045303030313039303046353530363536E8
:1008C00046303930304641003A30363131444130DB
:1008D00030454130454636364531303045393500B2
:1008E0003A30413131443030304531364545353587
:1008F000324537434644394646313230304546006A
:100900003A3130313143303030454532324545326D
:100910003243324437303830454531354330324543
:100920003245313641453535324144003A31303176
:100930003142303030443935303034304645393644
:1009400045444143464541464645453241303030B5
:1009500045454532324434003A313031314130304E
:1009600030444143464541464645453241303030AA
:1009700045454532324545323245453232453944A6
:10098000373937003A31303131393030304545353B
:1009900038303030454545353830303045454535BF
:1009A000383041453244394346453946464535009D
:1009B0003A313031313830303044443532443943C3
:1009C000464539464644414346454146464634300D
:1009D0004545453543303130454233003A313031B9
:1009E00031373030303033353045453538323845A1
:1009F0003244453641444536414445364144443607
:100A000041444435323745003A31303131363030A7
:100A10003044414346454146463030353045453502
:100A20004330313530454535383032353045453540
:100A3000383234003A31303131353030304645309B
:100A40004544424346303146303032364130333609
:100A50004144393530303430464539364537430026
:100A60003A31303131343030304442364130363032
:100A700045444236413037304544423641464430A1
:100A80004544424346303046303032003A3130310E
:100A90003133303030453646464531434644394699
:100AA00046303830454531323630343045444236B0
:100AB00041303530454242003A3130313132303008
:100AC000303031304545363645303444384535359B
:100AD0003245353532463744373132303044394388
:100AE000463841003A3130313131303030303444E1
:100AF0003830314430383939324641443731323078
:100B0000303839373246343045453636454433007F
:100B10003A31303131303030303046304543313188
:100B2000323839364130313045393236453932384C
:100B30003038304230303244304439003A3130318C
:100B400030463030304532434644414646453635DE
:100B500032453535324535434644414646313130DC
:100B600030313230303437003A3034313045433070
:100B70003044414346453446463734003A303231FA
:100B80003045413030303030303034003A3036315A
:100B900030443830303746454630384630313230D0
:100BA000303941003A30363130433830303736450D
:100BB0004630384630313230304233003A30363108
:100BC00030433030303343454630394630313230AF
:100BD000304634003A3036303031383030364345E4
:100BE0004630384630313230303744003A303630D3
:100BF0003030383030363445463038463031323097
:100C0000303935003A3036303030303030334345CB
:100C10004630394630313230304334003A303230A9
:0C0C20003030303034303030304641008D
:040C2C00120060EF63
:100C300006F01200D9CFE6FFE1CFD9FF260EE1265C
:100C400028EC00F0D9CFE6FFDACFE6FF04EC00F0A5
:100C5000E552E552040EDB0409E0D9CFE6FFDACF16
:100C6000E6FF04EC00F0E552E552F4D72EEC00F07C
:100C7000260EE15C02E2E16AE552E16EE552E7CF61
:100C8000D9FF1200D9CFE6FFE1CFD9FF260EE1262A
:100C900028EC00F0D9CFE6FFDACFE6FF04EC00F055
:100CA000E552E5522EEC00F0006E260EE15C02E209
:100CB000E16AE552E16E0050E552E7CFD9FF12003C
:100CC000D9CFE6FFE1CFD9FFE652DF6AF66A800EA0
:100CD000F76EF86AA684A688DF50DF2A5F0806E36D
:100CE00062D8040EF726000EF822F6D7A694A6982E
:100CF000E552E552E7CFD9FF1200D9CFE6FFE1CFA9
:100D0000D9FFE652DF6AFA0EDBCFF6FFFB0EDBCF30
:100D1000F7FFFC0EDBCFF8FFDF50DF2A006EF90E85
:100D2000DB50005C0DE20900FD0EDBCFE9FFDB2AA2
:100D3000FE0EDBCFEAFF01E3DB2AF5CFEFFFECD7B6
:100D4000E552E552E7CFD9FF1200D9CFE6FFE1CF58
:100D5000D9FFE652DF6AFA0EDBCFF6FFFB0EDBCFE0
:100D6000F7FFFC0EDBCFF8FF400EDF5C14E2F90E5C
:100D7000DB50DF5C0CE2FD0EDBCFE9FFDB2AFE0E71
:100D8000DBCFEAFF01E3DB2AEF50F56E01D0F56817
:100D90000D00DF2AE9D70A00A68405D8E552E552FE
:100DA000E7CFD9FF1200F29E550EA76EAA0EA76ECE
:0A0DB000A682A6B2FED7F28E120052
:060DBA00060EF66E000EAD
:100DC000F76E000EF86E00010900F5508B6F0900F8
:100DD000F5508C6F03E18B6701D03DD00900F550D1
:100DE000866F0900F550876F0900F550886F09007C
:100DF0000900F550E96E0900F550EA6E0900090096
:100E00000900F550896F0900F5508A6F0900090043
:100E1000F6CF8DF0F7CF8EF0F8CF8FF086C0F6FFCB
:100E200087C0F7FF88C0F8FF0001895302E18A53A9
:100E300007E00900F550EE6E8907F8E28A07F9D756
:100E40008DC0F6FF8EC0F7FF8FC0F8FF00018B0743
:080E5000000E8C5BBFD71200FD
:080E58001C0C040CEC0BD40B84
:100E6000BC0BA40B8C0B7C0B680B3C0B100BE40A2B
:100E7000B80A8C0A600A340A080ADC09B009840935
:100E800058092C090009E008C8089C0870084408A3
:100E90001808EC07C007940768073C0720070407F9
:0C0EA000D806C406A00690068006740662
:040EAC00B00EF36E23
:100EB00000EE00F00E0E01D81200EA6002D0EE6AD9
:0C0EC000FCD7F350E9601200EE6AFCD78A
:040ECC001CEE00F028
:100ED0002CEE00F0F86A089CDDEC06F078EC07F0E8
:080EE00074EC07F0FBD71200CF
:080EE8001AEC06F0FFD712001E
:020EF0001200EE
:020000040001F9
:01FFF800AC5C
:01FFF900F512
:01FFFA0012F4
:01FFFB00FF06
:01FFFC007193
:01FFFD00F211
:01FFFE00FF03
:01FFFF00FB06
:00000001FF
