:020000040000FA
:0600000090EF07F0120072
:020006000000F8
:080008001200A9EF02F0D9CFAC
:10001000E6FFE1CFD9FF470EE1268BEC03F0D9CF05
:10002000E6FFDACFE6FF6CEC03F0E552E552040E92
:10003000DB046EE0040EDB50F2E1010EDBCF00F0DA
:10004000020EDBCF01F0030EDBCF02F0036A000EDD
:10005000005C800E0158000E0258000E0358DFE3CA
:10006000010EDBCF04F0020EDBCF05F0030EDBCF79
:1000700006F0076AF80E045CFF0E0558010E0658DC
:10008000000E0758CCE2DFCFE6FF010EDBCFE6FF24
:10009000020EDBCFE6FF030EDBCFE6FFD950260FC3
:1000A000E66E000EDA20E66E71DA006E060EE15E94
:1000B0000050460EDB6ADF50F36E460EDBCFF4FFD6
:1000C000F350F45CACE2D950260F016EDACF02F0A7
:1000D000460EDB500F010124E96E000EDA20EA6EB5
:1000E000EFCF00F0D950050F036EDACF04F0460EC3
:1000F000DB500324E96E000EDA20EA6EEF50005C5C
:1001000004E090EC03F0000E06D0460EDB2AD3D7B5
:1001100090EC03F0010E006E470EE15C02E2E16A32
:10012000E552E16E0050E552E7CFD9FF1200D9CF7A
:10013000E6FFE1CFD9FF6D0EE1268BEC03F065DF22
:10014000660EDB6A800EF36E670EF3CFDBFF680E80
:10015000DB6A660EDBCF00F0670EDBCF01F0680EC6
:10016000DBCF02F0400E0026000E01220222690EB3
:1001700000C0DBFF6A0E01C0DBFF6B0E02C0DBFFBD
:10018000D950260FE66E000EDA20E66E5FDAE552F1
:10019000E552D9CFE6FFDACFE6FF6CEC03F0E5528B
:1001A000E552040EDB0401E1C8D1040EDB5001E08E
:1001B000BBD1010EDBCF00F0020EDBCF01F0030E4E
:1001C000DBCF02F0036A000E005C800E0158000EC7
:1001D0000258000E035801E274D1010EDBCF04F087
:1001E000020EDBCF05F0030EDBCF06F0076AF80E38
:1001F000045CFF0E0558010E0658000E075801E377
:1002000060D1690EDBCF00F06A0EDBCF01F06B0E20
:10021000DBCF02F0D950010FE96EDACFEAFF0050D0
:10022000EE5C0150EE580250EE5801E3FDD0DFCFF6
:1002300003F0046A056AD950010FE96EDACFEAFFCC
:10024000EE500324006EEE500420016EEE500520A7
:10025000026ED950690FE96EDACFEAFF0050EE5C0A
:100260000150EE580250EE5833E3DFCFE6FFD9508D
:10027000050FE66E000EDA20E66ED950260F026EEC
:10028000DACF03F0010EDBCF07F0020EDBCF08F070
:10029000030EDBCF09F0D950660FE96EDACFEAFF23
:1002A000EE50075C046EEE500858056EEE5009588B
:1002B000066E02500424006EDA500520016E00C064
:1002C000E6FFE66EE1D90A6E050EE15E0A5061D7DF
:1002D000690EDBCF03F06A0EDBCF04F06B0EDBCFD1
:1002E00005F0D950010FE96EDACFEAFFEE50035C5A
:1002F000006EEE500458016EEE500558026E6C0E02
:1003000000C0DBFFDBCFE6FFD950050FE66E000E25
:10031000DA20E66ED950260F026EDACF03F0010E16
:10032000DBCF07F0020EDBCF08F0030EDBCF09F0C6
:10033000D950660FE96EDACFEAFFEE50075C046E23
:10034000EE500858056EEE500958066E025004240F
:10035000006EDA500520016E00C0E6FFE66E94D90B
:100360000A6E050EE15E0A50400EE66E660EDBCFA9
:10037000E6FF670EDBCFE6FF680EDBCFE6FFD95066
:10038000260FE66E000EDA20E66E28D9006E060E05
:10039000E15E0050D950660FE96EDACFEAFF400EF9
:1003A000EE26000EEE22EE22660EDBCF00F0670E88
:1003B000DBCF01F0680EDBCF02F0400E0026000E0E
:1003C00001220222690E00C0DBFF6A0E01C0DBFFC2
:1003D0006B0E02C0DBFFD950260FE66E000EDA204E
:1003E000E66E34D9E552E5526C0EDB50DF5CE66E0A
:1003F000D950050F026EDACF03F06C0EDB5000010E
:100400000224006E000EDA20016E00C0E6FFE66EE8
:10041000D950260FE66E000EDA20E66E35D9046E4E
:10042000050EE15E0450B5D6400EE66E660EDBCFDB
:10043000E6FF670EDBCFE6FF680EDBCFE6FFD950A5
:10044000260FE66E000EDA20E66EC8D8006E060EA5
:10045000E15E0050D950260FE66E000EDA20E66EFF
:10046000F5D8E552E552010EDBCF00F0020EDBCFEE
:1004700001F0030EDBCF02F0036AC00E0016036A20
:10048000660E00C0DBFF670E01C0DBFF680E02C016
:10049000DBFF660EDBCF00F0670EDBCF01F0680EEE
:1004A000DBCF02F0400E0026000E01220222690E70
:1004B00000C0DBFF6A0E01C0DBFF6B0E02C0DBFF7A
:1004C00070D6010EDBCF00F0020EDBCF01F0030E81
:1004D000DBCF02F0036AF80E005CFF0E0158010E3C
:1004E0000258000E035820E3400EE66E660EDBCF86
:1004F000E6FF670EDBCFE6FF680EDBCFE6FFD950E5
:10050000260FE66E000EDA20E66E68D8006E060E44
:10051000E15E0050D950260FE66E000EDA20E66E3E
:1005200095D8E552E55209D0D9CFE6FFDACFE6FFFC
:100530006CEC03F0E552E55234D690EC03F06D0E0E
:10054000E15C02E2E16AE552E16EE552E7CFD9FFF4
:100550001200D9CFE6FFE1CFD9FFE652DF6AF66A93
:10056000800EF76EF86AA684A688DF50DF2A5F083F
:1005700006E362D8040EF726000EF822F6D7A694FA
:10058000A698E552E552E7CFD9FF1200D9CFE6FF92
:10059000E1CFD9FFE652DF6AFA0EDBCFF6FFFB0EA2
:1005A000DBCFF7FFFC0EDBCFF8FFDF50DF2A006E5A
:1005B000F90EDB50005C0DE20900FD0EDBCFE9FF18
:1005C000DB2AFE0EDBCFEAFF01E3DB2AF5CFEFFFEC
:1005D000ECD7E552E552E7CFD9FF1200D9CFE6FFBD
:1005E000E1CFD9FFE652DF6AFA0EDBCFF6FFFB0E52
:1005F000DBCFF7FFFC0EDBCFF8FF400EDF5C14E231
:10060000F90EDB50DF5C0CE2FD0EDBCFE9FFDB2AED
:10061000FE0EDBCFEAFF01E3DB2AEF50F56E01D0DF
:10062000F5680D00DF2AE9D70A00A68405D8E5524F
:10063000E552E7CFD9FF1200F29E550EA76EAA0E23
:10064000A76EA682A6B2FED7F28E1200D9CFE6FF21
:10065000E1CFD9FFE652DF6ADF6A400EDF5C0FE2CE
:10066000FD0EDBCFE9FFFE0EDBCFEAFFDF50E92412
:10067000E96E000EEA20EA6EEF68DF2AEED7E55257
:10068000E552E7CFD9FF1200D9CFE6FFE1CFD9FF7E
:10069000E652DF6AFA0EDB50DF5C19E2FB0EDBCFBD
:1006A000E9FFDB2AFC0EDBCFEAFF01E3DB2AEF5098
:1006B000E66EFD0EDBCFE9FFDB2AFE0EDBCFEAFFA5
:1006C00001E3DB2AE552E750EF6EDF2AE3D7E5527C
:0806D000E552E7CFD9FF12004B
:0806D800D9CFE6FFE1CFD9FF05
:1006E000020EE126FD0EDBCFE6FFFE0EDBCFE6FFBE
:1006F000DECFE6FFDDCFE6FF14D8E552E552E55246
:10070000E552020EE15C02E2E16AE552E16EE55279
:10071000E7CFD9FF120000016A6B6B6B6C6B1200A4
:100720001200D9CFE6FFE1CFD9FF030EE126DF6A41
:10073000010EDB6A020EDB6AFB0EDBCFE9FFFC0E6B
:10074000DBCFEAFFEF6AFB0EDBCFE9FFFC0EDBCF6E
:10075000EAFFEE526AC0EEFF6BC0EEFF6CC0EEFF28
:10076000DF6A010EDB6A020EDB6AD9CFE9FFDACF5E
:10077000EAFF200EEE5C000EEE58000EEF581FE26E
:10078000FB0EDBCFE9FFFC0EDBCFEAFF050EE9260F
:10079000000EEA22E9CF00F0EACF01F0DB50E924B5
:1007A000E96E010EDB50EA20EA6EEF6AD9CFE9FF6D
:1007B000DACFEAFFEE2A000EEE22EE22D6D7FB0EAB
:1007C000DBCFE9FFFC0EDBCFEAFF250EE926000EAA
:1007D000EA22EF6AFD0EDBCFE9FFDB2AFE0EDBCF5C
:1007E000EAFF01E3DB2AEF503A0801E048D2FD0EB0
:1007F000DBCFE9FFDB2AFE0EDBCFEAFF01E3DB2ADA
:10080000EF50E66E49DAE552F3CF00F0F4CF01F095
:10081000040ED89000360136E804FBE1FB0EDBCF76
:10082000E9FFFC0EDBCFEAFF0050EF26FD0EDBCF29
:10083000E9FFDB2AFE0EDBCFEAFF01E3DB2AEF5004
:10084000E66E2ADAE552F3CF00F0FB0EDBCFE9FFCC
:10085000FC0EDBCFEAFFF350EF26FD0EDBCFE9FF06
:10086000DB2AFE0EDBCFEAFF01E3DB2AEF50E66E68
:1008700013DAE552F338006AF00B016E026AFB0EE0
:10088000DBCFE9FFFC0EDBCFEAFFEE520050EE2695
:100890000150EE220250EE22FD0EDBCFE9FFDB2AF3
:1008A000FE0EDBCFEAFF01E3DB2AEF50E66EF4D960
:1008B000E552F3CF01F0006A026AFB0EDBCFE9FFDD
:1008C000FC0EDBCFEAFFEE520050EE260150EE2286
:1008D0000250EE22FD0EDBCFE9FFDB2AFE0EDBCF5E
:1008E000EAFF01E3DB2AEF50E66ED6D9E552F3CFFB
:1008F00000F0F4CF01F0040ED89000360136E80481
:10090000FBE1026AFB0EDBCFE9FFFC0EDBCFEAFF67
:10091000EE520050EE260150EE220250EE22FD0E65
:10092000DBCFE9FFDB2AFE0EDBCFEAFF01E3DB2AA8
:10093000EF50E66EB1D9E552F3CF00F0F4CF01F0FD
:10094000026AFB0EDBCFE9FFFC0EDBCFEAFFEE52C3
:10095000F350EE260150EE220250EE22DF6A010E25
:10096000DB6A020EDB6AFD0EDBCFE9FFDB2AFE0E3F
:10097000DBCFEAFF01E3DB2AEF50E66E8DD9E552CB
:10098000F3CF00F0F4CF01F0D89000360136026AC0
:10099000D9CFE9FFDACFEAFF0050EE260150EE2270
:1009A0000250EE22FD0EDBCFE9FFDB2AFE0EDBCF8D
:1009B000EAFF01E3DB2AEF50E66E6ED9E552F4CF91
:1009C00001F0026AD9CFE9FFDACFEAFFF350EE2651
:1009D0000150EE220250EE22FB0EDBCFE9FFFC0EAF
:1009E000DBCFEAFF040EE926000EEA22DFCFEFFF9D
:1009F000DF6A010EDB6A020EDB6AFB0EDBCFE9FF6A
:100A0000FC0EDBCFEAFFEF50E824006E016A026AB9
:100A1000D9CFE9FFDACFEAFFE850EE5C0150EE589B
:100A20000250EE5870E2FD0EDBCFE9FFDB2AFE0E2E
:100A3000DBCFEAFF01E3DB2AEF50E66E2DD9E5526A
:100A4000F3CF05F0F4CF06F0040ED8900536063645
:100A5000E804FBE1FB0EDBCFE9FFFC0EDBCFEAFF96
:100A6000050EE926000EEA22E9CF00F0EACF01F0F8
:100A7000DFCF02F0010EDBCF03F0020EDBCF04F07C
:100A8000D890043203320232E9500224E96EEA506F
:100A90000320EA6E0550EF26FD0EDBCFE9FFDB2ACF
:100AA000FE0EDBCFEAFF01E3DB2AEF50E66EF4D85F
:100AB000E552F3CF05F0FB0EDBCFE9FFFC0EDBCFF9
:100AC000EAFF050EE926000EEA22DFCF02F0010E52
:100AD000DBCF03F0020EDBCF04F0D89004320332F8
:100AE0000232E9500224E96EEA500320EA6EF35024
:100AF000EF26D9CFE9FFDACFEAFF020EEE26000E8D
:100B0000EE22EE227AD7FD0EDBCFE9FFDB2AFE0EC6
:100B1000DBCFEAFF01E3DB2AEF50E66EBDD8E552FA
:100B2000F3CF00F0F4CF01F0040ED8900036013678
:100B3000E804FBE1FB0EDBCFE9FFFC0EDBCFEAFFB5
:100B4000250EE926000EEA220050EF26FD0EDBCF2F
:100B5000E9FFDB2AFE0EDBCFEAFF01E3DB2AEF50E1
:100B6000E66E9AD8E552FB0EDBCFE9FFFC0EDBCF39
:100B7000EAFF250EE926000EEA22F350EF26FB0ECF
:100B8000DBCFE9FFFC0EDBCFEAFF040EE926000E07
:100B9000EA22EF50040874E100016A6B6B6B6C6B26
:100BA000FB0EDBCFE9FFFC0EDBCFEAFF050EE926EB
:100BB000000EEA22EFCF00F0016A026A00AE02D016
:100BC0000168026800C0DFFF010E01C0DBFF020EFA
:100BD00002C0DBFF180ED9CFE9FFDACFEAFFE850F9
:100BE0001F0BEECF00F0EECF01F0EECF02F006E0EB
:100BF000D890003601360236E806FAE100500001CE
:100C00006A2701506B2302506C23FB0EDBCFE9FFF8
:100C1000FC0EDBCFEAFF050EE926000EEA22010EEC
:100C2000E926000EEA22EFCF00F0016A026A00AE68
:100C300002D00168026800C0DFFF010E01C0DBFFC7
:100C4000020E02C0DBFF100ED9CFE9FFDACFEAFFB8
:100C5000E8501F0BEECF00F0EECF01F0EECF02F028
:100C600006E0D890003601360236E806FAE1005078
:100C700000016A2701506B2302506C2301D0000E43
:100C8000006E030EE15C02E2E16AE552E16E0050A3
:100C9000E552E7CFD9FF1200D9CFE6FFE1CFD9FF68
:100CA000E652DF68FE0EDB50460A4AE0030A46E0E1
:100CB000010A42E0070A3EE0010A3AE0030A36E090
:100CC000270A32E0030A3AE0010A36E0070A32E076
:100CD000010A2EE0030A2AE0580A24E0010A20E073
:100CE0000F0A1CE0010A18E0030A14E0010A10E0F0
:100CF000070A0CE0010A08E0030A04E0010A23E104
:100D0000DF6A22D0010E1DD0020E1BD0030E19D0B7
:100D1000040E17D0050E15D0060E13D0070E11D0F5
:100D2000080E0FD0090E0DD00F0E0BD00A0E09D0F1
:100D30000B0E07D00C0E05D00D0E03D00E0E01D0F9
:100D40000F0EDF6E01D0DF68DF50016AF36E01C065
:0C0D5000F4FFE552E552E7CFD9FF120096
:040D5C008B808B827B
:100D60001200D9CFE6FFE1CFD9FFFC0EDBCFF6FFB3
:100D7000FD0EDBCFF7FFFE0EDBCFF8FF0800F550CE
:100D800016E0D950FC0FE96EFF0EDA20EA6EEFCFC5
:100D9000F6FFEE2AEFCFF7FF000EEE22EFCFF8FFBF
:100DA000EE220800F550E66E24D8E552DED7E55273
:100DB000E7CFD9FF1200D9CFE6FFE1CFD9FFFD0E73
:100DC000DBCFE9FFFE0EDBCFEAFFEF500EE0FD0EBA
:100DD000DBCFE9FFDB2AFE0EDBCFEAFF01E3DB2AF4
:100DE000EF50E66E06D8E552EAD7E552E7CFD9FFD5
:100DF0001200D9CFE6FFE1CFD9FFE652080EDF6E31
:100E0000FE0EDBCF6DF08B908B9400016DBF8B8459
:100E10008B92010EE66E10D8E5528B82010EE66EC3
:100E20000BD8E5526D37DF06DF50EEE18B80E552DF
:100E3000E552E7CFD9FF1200D9CFE6FFE1CFD9FFC6
:100E4000FE0EDBCFF3FFDB06F350000906E0280EB1
:100E5000E66E9EEC07F0E552F3D7E552E7CFD9FFF7
:020E600012007E
:0E0E6200060EF66E000EF76E000EF86E000122
:100E70000900F550656F0900F550666F03E165677D
:100E800001D03DD00900F550606F0900F550616F49
:100E90000900F550626F09000900F550E96E09007C
:100EA000F550EA6E090009000900F550636F09006A
:100EB000F550646F09000900F6CF67F0F7CF68F0CE
:100EC000F8CF69F060C0F6FF61C0F7FF62C0F8FFBD
:100ED0000001635302E1645307E00900F550EE6E30
:100EE0006307F8E26407F9D767C0F6FF68C0F7FF49
:100EF00069C0F8FF00016507000E665BBFD71200EE
:100F0000B00EF36E00EE00F00E0E01D81200EA6093
:100F100002D0EE6AFCD7F350E9601200EE6AFCD70B
:100F20001CEE00F02CEE00F0F86A0C9C31EC07F09F
:0C0F3000BFEC07F0ACEC07F0FBD71200A0
:040F3C00FF0EE35071
:100F40000D6E1B0E00D001D0200EE76EE72EFED7EF
:080F50000D2EFAD700D01200AB
:080F5800700EE66E0F0EE66E4E
:100F6000000EE66EB1EC06F0E552E552E5521200D5
:0D0F70005374617274696E672041707000E7
:020F7E0012005F
:020000040001F9
:01FFF800AC5C
:01FFF900F512
:01FFFA0012F4
:01FFFB00FF06
:01FFFC007193
:01FFFD00F211
:01FFFE00FF03
:01FFFF00FB06
:00000001FF
