:020000040000FA
:0600000083EF0AF012007C
:020006000000F8
:08000800D9CFE6FFE1CFD9FFDB
:10001000020EE126FD0EDBCFE6FFFE0EDBCFE6FF94
:1000200090DBF3CF14F0F4CF15F014C0E6FF15C049
:10003000E6FF15D8E552E552E552E552020EE15CC5
:1000400002E2E16AE552E16EE552E7CFD9FF120024
:100050000001606B616B626B636B12001200D9CFA1
:10006000E6FFE1CFD9FF030EE126DF6A010EDB6A6E
:10007000020EDB6AFB0EDBCFE9FFFC0EDBCFEAFFF3
:10008000EF6AFB0EDBCFE9FFFC0EDBCFEAFFEE529F
:1000900060C0EEFF61C0EEFF62C0EEFFDF6A010EDE
:1000A000DB6A020EDB6AD9CFE9FFDACFEAFF200E66
:1000B000EE5C000EEE58000EEF581FE2FB0EDBCF99
:1000C000E9FFFC0EDBCFEAFF050EE926000EEA226F
:1000D000E9CF14F0EACF15F0DB501424E96E010EDD
:1000E000DB501520EA6EEF6AD9CFE9FFDACFEAFFDD
:1000F000EE2A000EEE22EE22D6D7FB0EDBCFE9FF72
:10010000FC0EDBCFEAFF250EE926000EEA22EF6A9D
:10011000FD0EDBCFE9FFDB2AFE0EDBCFEAFF01E3BA
:10012000DB2AEF503A0801E05FD2FD0EDBCFE9FF9A
:10013000DB2AFE0EDBCFEAFF01E3DB2AEF50E66E9F
:1001400061DAE552F3CF14F0F4CF15F0040ED89035
:1001500014361536E804FBE1FB0EDBCFE9FFFC0E9D
:10016000DBCFEAFF1450EF26FD0EDBCFE9FFDB2AE1
:10017000FE0EDBCFEAFF01E3DB2AEF50E66E42DA48
:10018000E552F3CF14F0FB0EDBCFE9FFFC0EDBCF23
:10019000EAFF1450EF26FD0EDBCFE9FFDB2AFE0E4F
:1001A000DBCFEAFF01E3DB2AEF50E66E2BDAE55204
:1001B000F3CF14F0F4CF15F01438146AF00B156E69
:1001C000166AFB0EDBCFE9FFFC0EDBCFEAFFEE5237
:1001D0001450EE261550EE221650EE22FD0EDBCF07
:1001E000E9FFDB2AFE0EDBCFEAFF01E3DB2AEF505B
:1001F000E66E08DAE552F3CF14F0F4CF15F014C030
:1002000015F0146A166AFB0EDBCFE9FFFC0EDBCF9C
:10021000EAFFEE521450EE261550EE221650EE2252
:10022000FD0EDBCFE9FFDB2AFE0EDBCFEAFF01E3A9
:10023000DB2AEF50E66EE6D9E552F3CF14F0F4CFA7
:1002400015F0040ED89014361536E804FBE1166A52
:10025000FB0EDBCFE9FFFC0EDBCFEAFFEE521450C2
:10026000EE261550EE221650EE22FD0EDBCFE9FFF2
:10027000DB2AFE0EDBCFEAFF01E3DB2AEF50E66E5E
:10028000C1D9E552F3CF14F0F4CF15F0166AFB0E86
:10029000DBCFE9FFFC0EDBCFEAFFEE521450EE2677
:1002A0001550EE221650EE22DF6A010EDB6A020EB6
:1002B000DB6AFD0EDBCFE9FFDB2AFE0EDBCFEAFFB8
:1002C00001E3DB2AEF50E66E9DD9E552F3CF14F03F
:1002D000F4CF15F0D89014361536166AD9CFE9FF49
:1002E000DACFEAFF1450EE261550EE221650EE2219
:1002F000FD0EDBCFE9FFDB2AFE0EDBCFEAFF01E3D9
:10030000DB2AEF50E66E7ED9E552F3CF14F0F4CF3E
:1003100015F0166AD9CFE9FFDACFEAFF1450EE26BE
:100320001550EE221650EE22FB0EDBCFE9FFFC0E3D
:10033000DBCFEAFF040EE926000EEA22DFCFEFFF53
:10034000DF6A010EDB6A020EDB6AFB0EDBCFE9FF20
:10035000FC0EDBCFEAFFEF50E824146E156A166A34
:10036000D9CFE9FFDACFEAFF1450EE5C1550EE5812
:100370001650EE5874E2FD0EDBCFE9FFDB2AFE0ECD
:10038000DBCFEAFF01E3DB2AEF50E66E3BD9E55213
:10039000F3CF19F0F4CF1AF0040ED89019361A36AC
:1003A000E804FBE1FB0EDBCFE9FFFC0EDBCFEAFF4D
:1003B000050EE926000EEA22E9CF14F0EACF15F087
:1003C000DFCF16F0010EDBCF17F0020EDBCF18F0F7
:1003D000D89018321732163214501624E96E155080
:1003E0001720EA6E1950EF26FD0EDBCFE9FFDB2A5E
:1003F000FE0EDBCFEAFF01E3DB2AEF50E66E02D907
:10040000E552F3CF19F0FB0EDBCFE9FFFC0EDBCF9B
:10041000EAFF050EE926000EEA22E9CF14F0EACF42
:1004200015F0DFCF16F0010EDBCF17F0020EDBCF99
:1004300018F0D89018321732163214501624E96E7C
:1004400015501720EA6E1950EF26D9CFE9FFDACF01
:10045000EAFF020EEE26000EEE22EE2276D7FD0E09
:10046000DBCFE9FFDB2AFE0EDBCFEAFF01E3DB2A6D
:10047000EF50E66EC7D8E552F3CF14F0F4CF15F085
:10048000040ED89014361536E804FBE1FB0EDBCFE2
:10049000E9FFFC0EDBCFEAFF250EE926000EEA227B
:1004A0001450EF26FD0EDBCFE9FFDB2AFE0EDBCF7B
:1004B000EAFF01E3DB2AEF50E66EA4D8E552F3CF62
:1004C00014F0FB0EDBCFE9FFFC0EDBCFEAFF250EBD
:1004D000E926000EEA221450EF26FB0EDBCFE9FFDF
:1004E000FC0EDBCFEAFF040EE926000EEA22EF50F5
:1004F000040801E078D00001606B616B626BFB0E59
:10050000DBCFE9FFFC0EDBCFEAFF050EE926000E8C
:10051000EA22EF50F36EF3CF14F0156A166A14AEA8
:1005200002D01568166814506027155061231650C4
:100530006223FB0EDBCFE9FFFC0EDBCFEAFF050EEB
:10054000E926000EEA22010EE926000EEA22EF500B
:10055000F36EF3CF14F0156A166A14AE02D0156864
:100560001668145060271550612316506223FB0E45
:10057000DBCFE9FFFC0EDBCFEAFF050EE926000E1C
:10058000EA22020EE926000EEA22EF50F36EF3CFC4
:1005900014F0156A166A14AE02D015681668145065
:1005A00060271550612316506223FB0EDBCFE9FF55
:1005B000FC0EDBCFEAFF050EE926000EEA22030E51
:1005C000E926000EEA22EF50F36EF3CF14F0156A1D
:1005D000166A14AE02D015681668145060271550BC
:1005E00061231650622302D0000E00D0146E030E59
:1005F000E15C02E2E16AE552E16E1450E552E7CFB8
:10060000D9FF1200D9CFE6FFE1CFD9FFE652DF686C
:10061000FE0EDB50460A6AE0030A65E0010A60E06C
:10062000070A5BE0010A56E0030A51E0270A4CE0A2
:10063000030A47E0010A42E0070A3DE0010A38E008
:10064000030A33E0580A2EE0010A29E00F0A24E0E9
:10065000010A1FE0030A1AE0010A15E0070A10E088
:10066000010A0BE0030A06E0010A02E0DF6841D05C
:10067000DF6A3FD0010EDF6E3CD0020EDF6E39D054
:10068000030EDF6E36D0040EDF6E33D0050EDF6E44
:1006900030D0060EDF6E2DD0070EDF6E2AD0080E8A
:1006A000DF6E27D0090EDF6E24D00A0EDF6E21D058
:1006B0000B0EDF6E1ED00C0EDF6E1BD00D0EDF6E2C
:1006C00018D00E0EDF6E15D00F0EDF6E12D00A0E90
:1006D000DF6E0FD00B0EDF6E0CD00C0EDF6E09D06C
:1006E0000D0EDF6E06D00E0EDF6E03D00F0EDF6E26
:1006F00000D0DF50146E156A14C0F3FF15C0F4FF6C
:1007000000D0E552E552E7CFD9FF1200000166C0E4
:10071000F6FF662B67C0F7FF000E672368C0F8FF7F
:1007200068230800F550E66E64C0E9FF65C0EAFF83
:10073000642B000E6523E552E750EF6E01E0E6D72B
:1007400012000C0E146E140E156E000E166E0001C3
:100750006351632B176E186A196A030E0C6E0D6ACB
:100760000E6A17C007F018C008F019C009F0BDECF8
:1007700009F004C017F005C018F006C019F01450B5
:100780001724F36E15501820F46E16501920F86EC9
:10079000F4CFF7FFF3CFF6FF0900F5CF66F00900BD
:1007A000F5CF67F00800F5CF68F00001690E646FBF
:1007B000000E656FABDF690E146E000E156E14C06F
:0A07C000F3FF15C0F4FF00D0120093
:0607CA003A3030303030FF
:1007D0003030314646003A303231324132303031F9
:1007E0003230303338003A3032313241303030310B
:1007F0003230303341003A304331323934303030E6
:100800003045453030463030463045454536414527
:10081000413632464444374442003A30343132396A
:1008200030303046424437313230303736003A319A
:100830003031323830303046383641303539434542
:1008400044454330384630353145433039463038F9
:10085000304543303846304630003A303831323750
:10086000383030313345453030463032334545300D
:100870003046303743003A3038313237303030305C
:1008800030304536363542424644373132303046D4
:1008900046003A3130313236303030363743304628
:1008A0003646463638433046374646363943304674
:1008B00038464630303031363530374237003A31FD
:1008C00030313235303030303745303039303046E5
:1008D000353530454536453633303746384532367E
:1008E000343037463944373745003A3130313234C5
:1008F0003030303631433046374646363243304664
:100900003846463030303136333533303245313683
:100910003435333144003A313031323330303046BF
:1009200036434636374630463743463638463046F5
:1009300038434636394630363043304636464633FD
:1009400046003A3130313232303030303930304692
:100950003535303633364630393030463535303639
:1009600034364630393030303930303642003A3162
:100970003031323130303030393030463535304535
:1009800039364530393030463535304541364530D9
:10099000393030303930303731003A31303132305F
:1009A00030303036303646303930304635353036F6
:1009B00031364630393030463535303632364630CD
:1009C0003930304339003A313031314630303046F9
:1009D00035353036363646303345313635363730B4
:1009E0003144303344443030393030463535304688
:1009F00039003A31303131453030304637364530C4
:100A00003030454638364530303031303930304678
:100A100035353036353646303930304641003A309B
:100A20003631314441303045413045463636453126
:100A30003030453935003A3041313144303030457D
:100A400031364545353532453743464439464631DA
:100A50003230304546003A31303131433030304564
:100A600045323245453232433244373038304545DD
:100A700031354330324532453136414535353241E5
:100A800044003A3130313142303030443935303041
:100A9000343046453936454441434645414646454E
:100AA00045324130303045454532324434003A31E8
:100AB000303131413030304441434645414646456E
:100AC0004532413030304545453232454532324578
:100AD000453232453944373937003A3130313139CE
:100AE0003030304545353830303045454535383083
:100AF0003030454545353830414532443943464527
:100B00003946464535003A3130313138303030449D
:100B100044353244394346453946464441434645C7
:100B200041464646343045454535433031304542EF
:100B300033003A31303131373030303033353045B1
:100B400045353832384532444536414445364144CE
:100B500045364144443641444435323745003A3104
:100B600030313136303030444143464541464630DD
:100B700030353045453543303135304545353830F1
:100B8000323530454535383234003A31303131353F
:100B900030303046453045444243463031463030AF
:100BA00032364130333641443935303034304645C1
:100BB0003936453743003A31303131343030304402
:100BC0004236413036304544423641303730454474
:100BD0004236414644304544424346303046303048
:100BE00032003A31303131333030304536464645C7
:100BF0003143464439464630383045453132363047
:100C000034304544423641303530454242003A3175
:100C10003031313230303030313045453636453084
:100C20003444384535353245353532463744373129
:100C3000323030443943463841003A313031313175
:100C4000303030303444383031443038393932463D
:100C50004144373132303038393732463430454507
:100C60003636454433003A3130313130303030306F
:100C700046304543313132383936413031304539EB
:100C800032364539323830383042303032443044F0
:100C900039003A3130313046303030453243464405
:100CA000414646453635324535353245354346446D
:100CB00041464631313030313230303437003A300D
:100CC000343130454330304441434645344646375D
:100CD00034003A303231304541303030303030300D
:100CE00034003A30363130443830303746454630BB
:100CF000384630313230303941003A3036313043C5
:100D00003830303736454630384630313230304270
:100D100033003A303631304330303033434546309B
:100D2000394630313230304634003A3036303031A6
:100D3000383030364345463038463031323030373F
:100D400044003A3036303030383030363445463072
:100D5000384630313230303935003A303630303084
:100D6000303030334345463039463031323030430D
:100D700034003A3032303030303034303030304679
:020D8000410030
:0E0D82001200CEEF08F01200D9CFE6FFE1CF4D
:100D9000D9FF6D0EE12628EC00F0F4DF660EDB6A69
:100DA000800EF36E670EF3CFDBFF680EDB6A660E14
:100DB000DBCF14F0670EDBCF15F0680EDBCF16F03B
:100DC000400E1426000E15221622690E14C0DBFFF9
:100DD0006A0E15C0DBFF6B0E16C0DBFF400EF36E14
:100DE0006C0EF3CFDBFFD950260FE66E000EDA2033
:100DF000E66E51DAE552E552D9CFE6FFDACFE6FFEB
:100E000004EC00F0E552E552040EDB0401E19CD154
:100E1000040EDB5001E08FD1010EDBCF14F0020E87
:100E2000DBCF15F0030EDBCF16F0176A000E145C53
:100E3000800E1558000E1658000E175801E272D198
:100E4000010EDBCF18F0020EDBCF19F0030EDBCF63
:100E50001AF01B6AF70E185CFF0E1958010E1A588B
:100E6000000E1B5801E35ED1690EDBCF14F06A0E51
:100E7000DBCF15F06B0EDBCF16F0D950010FE96E0A
:100E8000DACFEAFFEE50145CEE501558EE501658CB
:100E900001E2F6D0DF50F36E6C0EDBCFF4FFF350BF
:100EA000F45C45E3DFCFE6FFE66AD950050FE66E56
:100EB000000EDA20E66ED950260F146EDACF15F048
:100EC000010EDBCF19F0020EDBCF1AF0030EDBCFE1
:100ED0001BF0D950660FE96EDACFEAFFEE50195CCD
:100EE000166EEE501A58176EEE501B58186E1450AE
:100EF0001624E96E15501720EA6EEF50E66EE66A8A
:100F000045EC0AF01C6E060EE15E1C506C0EDBCF49
:100F1000E7FFDF50E75E6C0EE7CFDBFFD9CFE6FFE0
:100F2000DACFE6FF04EC00F0E552E552A8D06C0EF3
:100F3000DBCFE6FFE66AD950050FE66E000EDA2039
:100F4000E66ED950260F146EDACF15F0010EDBCF06
:100F500019F0020EDBCF1AF0030EDBCF1BF0D950D5
:100F6000660FE96EDACFEAFFEE50195C166EEE50AE
:100F70001A58176EEE501B58186E14501624E96E4E
:100F800015501720EA6EEF50E66EE66A45EC0AF05F
:100F90001C6E060EE15E1C50400EE66E660EDBCF48
:100FA000E6FF670EDBCFE6FF680EDBCFE6FFD9502A
:100FB000260FE66E000EDA20E66E35D9146E060EA8
:100FC000E15E1450D950660FE96EDACFEAFF400EA9
:100FD000EE26000EEE22EE22660EDBCF14F0670E38
:100FE000DBCF15F0680EDBCF16F0400E1426000E96
:100FF00015221622690E14C0DBFF6A0E15C0DBFF36
:101000006B0E16C0DBFFD950260FE66E000EDA20FD
:10101000E66E41D9E552E5526C0EDB50DF5CE66EC0
:10102000E66AD950050F146EDACF15F06C0EDB505E
:101030000F011424E96E000E1520EA6EEF50E66EE3
:10104000E66AD950260FE66E000EDA20E66E45EC11
:101050000AF0166E060EE15E1650400E146E6C0E0F
:10106000DB50DF5C145CE76E6C0EE7CFDBFFD9CFA3
:10107000E6FFDACFE6FF04EC00F0E552E55251D08E
:10108000400EE66E660EDBCFE6FF670EDBCFE6FFB7
:10109000680EDBCFE6FFD950260FE66E000EDA2091
:1010A000E66EC1D8146E060EE15E1450400EF36E6B
:1010B0006C0EF3CFDBFFD950260FE66E000EDA2060
:1010C000E66EE9D8E552E552010EDBCF14F0020ED0
:1010D000DBCF15F0030EDBCF16F0400E1416156AA9
:1010E000166A660E14C0DBFF670E15C0DBFF680EC4
:1010F00016C0DBFF660EDBCF14F0670EDBCF15F0FA
:10110000680EDBCF16F0400E1426000E15221622B4
:10111000690E14C0DBFF6A0E15C0DBFF6B0E16C034
:10112000DBFF08D0D9CFE6FFDACFE6FF04EC00F012
:10113000E552E55208D0D9CFE6FFDACFE6FF04EC5E
:1011400000F0E552E55260D62EEC00F06D0EE15C49
:1011500002E2E16AE552E16EE552E7CFD9FF120003
:10116000D9CFE6FFE1CFD9FF260EE12628EC00F02B
:10117000D9CFE6FFDACFE6FF04EC00F0E552E55206
:101180002EEC00F0146E260EE15C02E2E16AE552FC
:10119000E16E1450E552E7CFD9FF1200D9CFE6FF38
:1011A000E1CFD9FFE652DF6AF66A800EF76EF86A81
:1011B000A684A688DF50DF2A5F0806E362D8040E03
:1011C000F726000EF822F6D7A694A698E552E55227
:1011D000E7CFD9FF1200D9CFE6FFE1CFD9FFE65222
:1011E000DF6AFA0EDBCFF6FFFB0EDBCFF7FFFC0E5C
:1011F000DBCFF8FFDF50DF2A146EF90EDB50145CF2
:101200000DE20900FD0EDBCFE9FFDB2AFE0EDBCF8E
:10121000EAFF01E3DB2AF5CFEFFFECD7E552E55219
:10122000E7CFD9FF1200D9CFE6FFE1CFD9FFE652D1
:10123000DF6AFA0EDBCFF6FFFB0EDBCFF7FFFC0E0B
:10124000DBCFF8FF400EDF5C14E2F90EDB50DF5C11
:101250000CE2FD0EDBCFE9FFDB2AFE0EDBCFEAFF5F
:1012600001E3DB2AEF50F56E01D0F5680D00DF2AAF
:10127000E9D70A00A68405D8E552E552E7CFD9FFA1
:101280001200F29E550EA76EAA0EA76EA682A6B2F7
:10129000FED7F28E1200D9CFE6FFE1CFD9FFE6529A
:1012A000DF6ADF6A400EDF5C14E2FD0EDBCFE9FF90
:1012B000FE0EDBCFEAFFE9CF14F0EACF15F0DF50E6
:1012C0000F011424E96E000E1520EA6EEF68DF2A84
:0C12D000E9D7E552E552E7CFD9FF120044
:0412DC00060EF66E96
:1012E000000EF76E000EF86E00010900F550A06FB9
:1012F0000900F550A16F03E1A06701D03DD00900BE
:10130000F5509B6F0900F5509C6F0900F5509D6FDB
:1013100009000900F550E96E0900F550EA6E090070
:1013200009000900F5509E6F0900F5509F6F0900F4
:101330000900F6CFA2F0F7CFA3F0F8CFA4F09BC03E
:10134000F6FF9CC0F7FF9DC0F8FF00019E5302E12D
:101350009F5307E00900F550EE6E9E07F8E29F07E5
:10136000F9D7A2C0F6FFA3C0F7FFA4C0F8FF0001A1
:0A137000A007000EA15BBFD712001A
:06137A0009C013F008C0D9
:1013800012F007C011F007500C02F4CF05F0F3CFB4
:1013900004F008500D02F4CF07F0F3CF06F00C0272
:1013A000F3500526F4500622E86A072211500D0278
:1013B000F3500526F4500622E86A072209500C0271
:1013C000F3500626F450072209500D02086AE86A15
:1013D0000822F3500726F450082211500E02F35051
:1013E0000626F4500722096AE86A082209221250E8
:1013F0000E02F3500726F4500822E86A092213501F
:0C1400000E02F3500826F4500922000CE4
:04140C00720D005A03
:101410000D00420D002A0D00120D00FA0C00E20C26
:1014200000D20C00BE0C00920C00660C003A0C00BE
:101430000E0C00E20B00B60B008A0B005E0B0032B4
:101440000B00060B00DA0A00AE0A00820A00560AF8
:1014500000360A001E0A00F20900C609009A0900B7
:101460006E0900420900160900EA0800BE08009251
:1014700008007608005A08002E08001A0800F6072F
:0A14800000E60700D60700CA0700C7
:06148A00D9CFE6FFDACF26
:10149000E6FFFA0EE3CFD9FFFB0EE3CFDAFFFC0E37
:1014A000E3CFE9FFFD0EE3CFEAFFE9CFF3FFEACF99
:1014B000F4FFF80EE35003E1F90EE3500BE0F80EF1
:1014C000E30602E2F90EE306DECFEFFFEE66F1D7A8
:1014D000DD52EFD7FF0EE3CFDAFFE552FF0EE3CF89
:0614E000D9FFE5521200E5
:0A14E600B00EF36E00EE00F00E0EE3
:1014F00001D81200EA6002D0EE6AFCD7F350E9602E
:061500001200EE6AFCD7A8
:0A1506001CEE00F02CEE00F0F86A75
:10151000019C6EEC09F095EC0AF091EC0AF0FBD717
:021520001200B7
:08152200C5EC06F0FFD7120032
:02152A001200AD
:020000040001F9
:01FFF800AC5C
:01FFF900F512
:01FFFA0012F4
:01FFFB00FF06
:01FFFC007193
:01FFFD00F211
:01FFFE00FF03
:01FFFF00FB06
:00000001FF
