:020000040000FA
:0600000057EF28F012008A
:020006000000F8
:0800080080A203D004EF40F0D8
:0800100002D0A4EF24F012005D
:0800180080A203D00CEF40F0C0
:0800200002D0ABEF24F0120046
:08002800D9CFE6FFE1CFD9FFBB
:10003000020EE126FD0EDBCFDEFFDBCFDDFFF90E8A
:10004000DBCF00F0DB06FA0EDBCF01F001E2DB06CE
:10005000005001100CE0DFCFE9FFDF2A010EDBCFFB
:10006000EAFF01E3DB2AFB0EDBCFEFFFE8D7020E4E
:10007000E15C02E2E16AE552E16EE552E7CFD9FFC9
:100080001200D9CFE6FFE1CFD9FF080EE126FD0E21
:10009000DBCFDEFFDBCFDDFFFB0EDBCF24F0FC0E82
:1000A000DBCF25F0020E24C0DBFF030E25C0DBFFF3
:1000B000040EDB6A050EDB6ADFCFE9FFDF2A010EE3
:1000C000DBCFEAFF01E3DB2A060EEFCFDBFF020EF8
:1000D000DBCFE9FFDB2A030EDBCFEAFF01E3DB2AFC
:1000E000070EEFCFDBFF060EDBCFE6FF070EDB5080
:1000F000E552E75C006E016A00BE0168040E00C0B4
:10010000DBFF050E01C0DBFFF90EDBCF00F0DB06E5
:10011000FA0EDBCF01F001E2DB060050011008E02F
:10012000D950040FE96EDACFEAFFEE50ED10C4E0CB
:10013000040EDBCF00F0050EDBCF01F000C0F3FFB3
:1001400001C0F4FF080EE15C02E2E16AE552E16EF3
:10015000E552E7CFD9FF1200D9CFE6FFE1CFD9FFB3
:100160000C0EE1260A0EFDC0DBFF0B0EFEC0DBFF0E
:10017000FD0EDBCF00F0FE0EDBCF01F0020E005CC7
:10018000000E015801E2A8D1FD0EDBCF02F0FE0EF9
:10019000DBCF03F00A0EDBCFE9FF0B0EDBCFEAFF6C
:1001A000080EE926000EEA22EECF04F0EFCF05F0AC
:1001B0000450025C0550035801E38ED10A0EDBCFD8
:1001C000E9FF0B0EDBCFEAFFEF50020A01E126D177
:1001D000030A01E081D1FD0EDBCF24F0FE0EDBCF60
:1001E00025F0020E24C0DBFF030E25C0DBFF020E4C
:1001F000DBCF00F0030EDBCF01F0010E0F0B05E0AB
:10020000D89001320032E806FBE1D950020FE96EC6
:10021000DACFEAFF0050EE260150ED22020EDBCFCE
:1002200000F0030EDBCF01F00001010E0116040EF9
:1002300000C0DBFF050E01C0DBFFD950020FE96EE5
:10024000DACFEAFF090E0F0B06E0EC52D890ED3240
:10025000EF32E806FAE1D950040FE96EDACFEAFF8F
:10026000FF0EEE1802E1010EED183BE0020EE66E05
:10027000E66A040EDBCFE6FF050EDBCFE6FF020EDB
:10028000DBCF00F0030EDBCF01F0026A036A0A0E37
:10029000DBCFE9FF0B0EDBCFEAFF0A0EE926000EEB
:1002A000EA22EE500026EE500122EE500222EE50DD
:1002B000032200C0E6FF01C0E6FF02C0E6FF03C064
:1002C000E6FFD950060FE66E000EDA20E66EB2ECBD
:1002D0001BF0046E0A0EE15E0450000901E177D0C4
:1002E000FBD0010EE66EE66AE668E66E020EDBCF34
:1002F00000F0030EDBCF01F0026A036A0A0EDBCFC7
:10030000E9FF0B0EDBCFEAFF0A0EE926000EEA2218
:10031000EE500026EE500122EE500222EE50032253
:1003200000C0E6FF01C0E6FF02C0E6FF03C0E6FF33
:10033000D950060FE66E000EDA20E66EB2EC1BF026
:10034000046E0A0EE15E0450000901E0C5D0010E02
:10035000E66EE66A000EE66EE66A020EDBCF04F099
:10036000030EDBCF05F0066A076A0A0EDBCFE9FF52
:100370000B0EDBCFEAFF0A0EE926000EEA22EE5052
:100380000424006EEE500520016EEE500620026E31
:10039000EE500720036E002A000E012202220322E3
:1003A00000C0E6FF01C0E6FF02C0E6FF03C0E6FFB3
:1003B000D950070FE66E000EDA20E66EB2EC1BF0A5
:1003C000086E0A0EE15E0850000901E085D0070EB4
:1003D000DBCF02F002C003F0026A060EDB5002100F
:1003E000006E03C001F0DE6E03C0DDFFFD0EDB50CA
:1003F000010B0BE0DECF00F0DDCF01F0040ED89052
:1004000001320032E804FBE162D0DECF00F0DDCF44
:1004100001F0FF0E00160F0E011659D0020EE66E07
:10042000E66AFD0EDBCF00F0FE0EDBCF01F000012F
:10043000016A010ED89000360136E806FBE100C0E3
:10044000E6FF01C0E6FFFD0EDBCF02F0FE0EDBCFC4
:1004500003F0080E0F0B05E0D89003320232E806D5
:10046000FBE1046A056A0A0EDBCFE9FF0B0EDBCF66
:10047000EAFF0A0EE926000EEA22EE500226EE50AE
:100480000322EE500422EE50052202C0E6FF03C014
:10049000E6FF04C0E6FF05C0E6FFD950060FE66E92
:1004A000000EDA20E66EB2EC1BF0066E0A0EE15E7C
:1004B0000650000911E1070EDBCF02F002C003F085
:1004C000026A060EDB500210006E03C001F000C08D
:1004D000F3FF01C0F4FF03D0010EF36EF46A0C0EBB
:1004E000E15C02E2E16AE552E16EE552E7CFD9FF55
:1004F0001200D9CFE6FFE1CFD9FF020EE126FDC001
:10050000DEFFFEC0DDFFD950FD0FE96EFF0EDA20E1
:10051000EA6E020EEE5E000EED5AFD0EDBCF00F02D
:10052000FE0EDBCF01F0DECFE9FFDDCFEAFF080EE4
:10053000E926000EEA22EECF02F0EFCF03F0020E22
:10054000025E000E035A0250005C0350015805E39E
:10055000226A236A246A256A47D0DECFE9FFDDCF0D
:10056000EAFF120EE926000EEA22EECF0CF0EECFE3
:100570000DF0EECF0EF0EFCF0FF0DECFE9FFDDCFC5
:10058000EAFFEE52EFCF08F0096A0A6A0B6AFD0E25
:10059000DBCF04F0FE0EDBCF05F0066A076A04C06D
:1005A00022F005C023F006C024F007C025F008C0E3
:1005B00027F009C028F00AC029F00BC02AF0D5ECBA
:1005C00027F01E500C24006E1F500D20016E20508D
:1005D0000E20026E21500F20036E00C022F001C0D9
:1005E00023F002C024F0256E020EE15C02E2E16A13
:1005F000E552E16EE552E7CFD9FF1200D9CFE6FF11
:10060000E1CFD9FF040EE126020EFDC0DBFF030E91
:10061000FEC0DBFFFD0EDBCFE9FFFE0EDBCFEAFF06
:10062000EE6AED6AFD0EDBCFE9FFFE0EDBCFEAFFDF
:10063000040EE926000EEA22EECFDEFFEDCFDDFF4D
:10064000D9CFE9FFDACFEAFF010EEE1801E1ED5054
:1006500017E0DECF00F0DDCF01F0020EDBCFE9FFC7
:10066000030EDBCFEAFF080EE926000EEA22EECFEA
:1006700002F0EFCF03F00250005C0350015802E398
:10068000010E49D0FD0EDBCFE9FFFE0EDBCFEAFF06
:10069000060EE926000EEA22DECFEEFFDDCFEDFFEB
:1006A000D9CFE9FFDACFEAFFEE50ED1010E0DECF50
:1006B000E6FFDDCFE6FF1DDFE552E55222C000F088
:1006C00023C001F024C002F025C003F012D0020EB6
:1006D000DBCFE9FF030EDBCFEAFF0E0EE926000EAB
:1006E000EA22EECF00F0EECF01F0EECF02F0EFCF36
:1006F00003F0FD0EDBCFE9FFFE0EDBCFEAFF080EB5
:10070000E926000EEA2200C0EEFF01C0EEFF02C0A3
:10071000EEFF03C0EEFF006E040EE15C02E2E16A50
:10072000E552E16E0050E552E7CFD9FF1200D9CF74
:10073000E6FFE1CFD9FF060EE126040EFDC0DBFF88
:10074000050EFEC0DBFFFD0EDBCFE9FFFE0EDBCFAB
:10075000EAFFEECF00F0EFCF01F0010E0026000E11
:100760000122020E00C0DBFF030E01C0DBFFD950E7
:10077000020FE96EDACFEAFFEE50ED1001E1A8D0EA
:10078000FD0EDBCFE9FFFE0EDBCFEAFF080EE92608
:10079000000EEA22EECF00F0EECF01F0EECF02F035
:1007A000EFCF03F0005001100210031001E190D0D0
:1007B000020EDB500F0B01E0BCD0FD0EDBCFE9FFDA
:1007C000FE0EDBCFEAFF080EE926000EEA22EE2A33
:1007D000EE22EE22EE22FD0EDBCFE9FFFE0EDBCF96
:1007E000EAFF060EE926000EEA22EE50ED101BE1AC
:1007F000020EDBCF00F0030EDBCF01F0040EDBCFE7
:10080000E9FF050EDBCFEAFF040EE926000EEA221F
:10081000EECF02F0EFCF03F00250005C035001581E
:1008200001E287D055D0020EDBCF02F0030EDBCF02
:1008300003F0040E0F0B05E0D89003320232E806F5
:10084000FBE1040EDBCFE9FF050EDBCFEAFFEE5242
:10085000EF0400010214006E016AE850011069E122
:10086000FD0EDBCFE9FFFE0EDBCFEAFF060EE92629
:10087000000EEA22EECFE6FFEFCFE6FF6DDCE55299
:10088000E552F3CFDEFFF4CFDDFFD9CFE9FFDACFBA
:10089000EAFF010ED880EE54000EED5402E3010E83
:1008A00055D0DECF00F0DDCF01F0040EDBCFE9FF45
:1008B000050EDBCFEAFF080EE926000EEA22EECF96
:1008C00002F0EFCF03F00250005C0350015802E346
:1008D000030E3CD0FD0EDBCFE9FFFE0EDBCFEAFFBF
:1008E000060EE926000EEA22DECFEEFFDDCFEDFF99
:1008F000DECFE6FFDDCFE6FFFCDDE552E55222C0AC
:1009000000F023C001F024C002F025C003F0FD0E6A
:10091000DBCFE9FFFE0EDBCFEAFF080EE926000E73
:10092000EA2222C0EEFF01C0EEFF02C0EEFF03C0CC
:10093000EEFFFD0EDBCFE9FFFE0EDBCFEAFF020E7E
:10094000DBCFEEFF030EDBCFEDFF000E006E060ED9
:10095000E15C02E2E16AE552E16E0050E552E7CF68
:10096000D9FF1200D9CFE6FFE1CFD9FF040EE1266F
:10097000FD0EDBCFE6FFFE0EDBCFE6FF3FDEE552EE
:10098000E552DF6EDF5002E0DF5099D0FDC0E9FF95
:10099000FEC0EAFF060EE926000EEA22020EEECFA6
:1009A000DBFF030EEDCFDBFF200EE66EE66AFD0EE9
:1009B000DBCFE9FFFE0EDBCFEAFFEECF00F0EFCF9B
:1009C00001F00001016A0F0E0016050ED8900036E6
:1009D0000136E806FBE100C0E6FF01C0E6FFFD0EC0
:1009E000DBCFE9FFFE0EDBCFEAFF080EE926000EA3
:1009F000EA22EECFE6FFEECFE6FFEECFE6FFEFCF47
:100A0000E6FF020EDBCFE6FF030EDBCFE6FFB2EC24
:100A10001BF0026E0A0EE15E0250000902E0010EB8
:100A200001D0000EDF6EDF5049E1020EDBCFE9FF9F
:100A3000030EDBCFEAFF010EEFCFDBFFDB5003E15C
:100A4000030EDF6E3BD00B0EE76E020EDBCFE9FF2D
:100A5000030EDBCFEAFFE750E926000EEA22EF5053
:100A6000080B1FE10B0EE66EE66AFD0EDBCFE9FF19
:100A7000FE0EDBCFEAFF020EE926000EEA22EECFE1
:100A8000E6FFEFCFE6FF020EDBCFE6FF030EDBCF84
:100A9000E6FF02EC27F0006E060EE15E0050000952
:100AA0000DE0FD0EDBCFE6FFFE0EDBCFE6FF3FDE07
:100AB000E552E552DF6EDF5001E176D7DF50006E80
:100AC000040EE15C02E2E16AE552E16E0050E5529B
:100AD000E7CFD9FF1200D9CFE6FFE1CFD9FF050E4E
:100AE000E126030EDF6EFDC0E9FFFEC0EAFF060E41
:100AF000E926000EEA22030EEECFDBFF040EEDCF57
:100B0000DBFFFD0EDBCFE9FFFE0EDBCFEAFF080EB9
:100B1000E926000EEA22EECF00F0EECF01F0EECF94
:100B200002F0EFCF03F0005001100210031001E1BA
:100B300078D0200EE66EE66AFD0EDBCFE9FFFE0EF2
:100B4000DBCFEAFFEECF00F00001016A0F0E0016C6
:100B5000050ED89000360136E806FBE100C0E6FF3E
:100B600001C0E6FFFD0EDBCFE9FFFE0EDBCFEAFFA3
:100B7000080EE926000EEA22EECFE6FFEECFE6FFF2
:100B8000EECFE6FFEFCFE6FF030EDBCFE6FF040E6E
:100B9000DBCFE6FFB2EC1BF0026E0A0EE15E025004
:100BA000000902E0010E01D0000EDF6EDF5039E1D6
:100BB000030EDBCFE9FF040EDBCFEAFF020EEFCF1F
:100BC000DBFFDB5003E1030EDF6E2BD00B0EE76E75
:100BD000030EDBCFE9FF040EDBCFEAFFE750E92687
:100BE000000EEA22EF503F0BE76E010EE7CFDBFF6E
:100BF000020EDB50E50808E0020EDB502E0804E090
:100C0000010EDB50080B0DE0FD0EDBCFE6FFFE0E04
:100C1000DBCFE6FF8CDDE552E552DF6EDF5001E110
:100C200070D7DF500EE0FD0EDBCFE9FFFE0EDBCF0D
:100C3000EAFF080EE926000EEA22EE6AEE6AEE6A84
:100C4000EE6ADF50006E050EE15C02E2E16AE552F9
:100C5000E16E0050E552E7CFD9FF1200D9CFE6FF91
:100C6000E1CFD9FF180EE126FD0EDBCFE9FFFE0E26
:100C7000DBCFEAFF020EE926000EEA22050EEECFD8
:100C8000DBFF060EEDCFDBFF0B0EE66EE66A200EF5
:100C9000E66EE66A050EDBCFE6FF060EDBCFE6FF6B
:100CA00014EC00F0006E060EE15E0050040EDB6AEC
:100CB000030EDB6A080EF36E020EF3CFDBFFFB0EB2
:100CC000DBCFE9FFFC0EDBCFEAFF070EEECFDBFF49
:100CD000080EEDCFDBFF030EDBCFF3FFDB2AF35073
:100CE000E76E070EDBCFE9FF080EDBCFEAFFE75028
:100CF000E926000EEA22EFCFDFFFDF5020083CE2BA
:100D00002F0EDF5C39E02E0EDF5C09E0020EDB50B7
:100D1000F36E040EDBCFF4FFF350F45C12E3020E2B
:100D2000DB50080829E12E0EDF5C26E1080EF36E89
:100D3000040EF3CFDBFF0B0EF36E020EF3CFDBFFDF
:100D4000CAD7610EDF5C05E3DF507A0802E3200EAC
:100D5000DF5E040EDBCFF3FFDB2AF350E76E050EF8
:100D6000DBCFE9FF060EDBCFEAFFE750E926000EF6
:100D7000EA22DFCFEFFFAFD7030EDB50E76E070E9F
:100D8000DBCF00F0080EDBCF01F0E7500026000EAD
:100D90000122FB0EDBCFE9FFFC0EDBCFEAFF00C038
:100DA000EEFF01C0EDFFDF50200802E3010E01D08D
:100DB000000EE66E0B0EE76E050EDBCFE9FF060EAA
:100DC000DBCFEAFFE750E926000EEA22E552E750C2
:100DD000EF6E000E006E180EE15C02E2E16AE55271
:100DE000E16E0050E552E7CFD9FF1200D9CFE6FF00
:100DF000E1CFD9FF060EE126FB0EDBCFE9FFFC0EAB
:100E0000DBCFEAFF090EE926000EEA22040EE9CF45
:100E1000DBFF050EEACFDBFFFD0EDBCFE9FFFE0EA9
:100E2000DBCFEAFF080EE926000EEA22EECF00F043
:100E3000EECF01F0EECF02F0EFCF03F00050011043
:100E40000210031001E187D1FDC0E9FFFEC0EAFFF7
:100E5000060EE926000EEA22020EEECFDBFF030E9D
:100E6000EDCFDBFFDF6A080EDF5C27E2DF50E76EC5
:100E7000020EDBCFE9FF030EDBCFEAFFE750E926E6
:100E8000000EEA22010EEFCFDBFFDB50200815E059
:100E9000010EDB50050803E1DE52E50EDD6E040EA7
:100EA000DBCFE9FFDB2A050EDBCFEAFF01E3DB2A1C
:100EB000010EDBCFEFFFDF2AD6D7080EE76E020E5A
:100EC000DBCFE9FF030EDBCFEAFFE750E926000E98
:100ED000EA22EF50200830E0040EDBCFE9FFDB2AE6
:100EE000050EDBCFEAFF01E3DB2A2E0EEF6E080EC4
:100EF000DF6E0B0EDF5C20E2DF50E76E020EDBCF11
:100F0000E9FF030EDBCFEAFFE750E926000EEA22F5
:100F1000010EEFCFDBFFDB5020080EE0040EDBCF2D
:100F2000E9FFDB2A050EDBCFEAFF01E3DB2A010E36
:100F3000DBCFEFFFDF2ADDD70B0EE76E020EDBCF34
:100F4000E9FF030EDBCFEAFFE750E926000EEA22B5
:100F5000EF50E66EFB0EDBCFE9FFFC0EDBCFEAFFC6
:100F6000080EE926000EEA22E552E750EF6E1C0E4D
:100F7000E76E020EDBCFE9FF030EDBCFEAFFE7509F
:100F8000E926000EEA22030EE926000EEA22EFCF40
:100F900000F0016A026A036A180E1F0B07E0D8907E
:100FA0000036013602360336E806F9E11C0EE76E1C
:100FB000020EDBCFE9FF030EDBCFEAFFE750E926A5
:100FC000000EEA22020EE926000EEA22EFCF04F01C
:100FD000056A066A076A100E1F0B07E0D8900436F0
:100FE000053606360736E806F9E1045000120550CA
:100FF000011206500212075003121C0EE76E020E79
:10100000DBCFE9FF030EDBCFEAFFE750E926000E56
:10101000EA22010EE926000EEA22EFCF08F008C00E
:1010200009F0086A0A6A0B6A085000120950011296
:101030000A5002120B5003121C0EE76E020EDBCF99
:10104000E9FF030EDBCFEAFFE750E926000EEA22B4
:10105000EFCF0CF00D6A0E6A0F6A0C5000120D50A3
:1010600001120E5002120F500312FB0EDBCFE9FFEC
:10107000FC0EDBCFEAFF00C0EEFF01C0EEFF02C0B6
:10108000EEFF03C0EEFF180EE76E020EDBCFE9FFA6
:10109000030EDBCFEAFFE750E926000EEA22010E3D
:1010A000E926000EEA22EFCF02F002C003F0026A46
:1010B000180EE76E020EDBCFE9FF030EDBCFEAFF6F
:1010C000E750E926000EEA22EF500210006E03C03E
:1010D00001F0FB0EDBCFE9FFFC0EDBCFEAFF040ED5
:1010E000E926000EEA2200C0EEFF01C0EDFF160E59
:1010F000E76E020EDBCFE9FF030EDBCFEAFFE7501E
:10110000E926000EEA22010EE926000EEA22EFCFC0
:1011100002F002C003F0026A160EE76E020EDBCF89
:10112000E9FF030EDBCFEAFFE750E926000EEA22D3
:10113000EF500210006E03C001F0FB0EDBCFE9FFA1
:10114000FC0EDBCFEAFF060EE926000EEA2200C005
:10115000EEFF01C0EDFF040EDBCFE9FF050EDBCF94
:10116000EAFFEF6A060EE15C02E2E16AE552E16E37
:10117000E552E7CFD9FF1200D9CFE6FFE1CFD9FF83
:10118000120EE126FB0EDBCFE9FFFC0EDBCFEAFF00
:10119000EF50200806E1FB0EDB2AFC0EF3E3DB2A0E
:1011A000F1D7FB0EDBCFE9FFFC0EDBCFEAFFEF5000
:1011B0002F0805E1FB0EDB2AFC0E01E3DB2AFD0E06
:1011C000DBCFE9FFFE0EDBCFEAFF040EEB6A050E74
:1011D000EB6AFB0EDBCFE9FFFC0EDBCFEAFFEF5043
:1011E000200819E3FD0EDBCFE6FFFE0EDBCFE6FFA6
:1011F000FEEC02F0E552E552DF6EFDC0E9FFFEC0F5
:10120000EAFF060EE926000EEA22EE50EFCFEAFFD3
:10121000E96EEF6AA5D0D950FB0FE66EFF0EDA201B
:10122000E66EFD0EDBCFE6FFFE0EDBCFE6FF16DD42
:10123000E552E552E552E552DF6EDF5001E090D015
:10124000FD0EDBCFE6FFFE0EDBCFE6FFB2EC04F0D7
:10125000E552E552DF6EDF5019E0030EDF5C01E07E
:101260007FD0FD0EDBCFE9FFFE0EDBCFEAFF020EE3
:10127000E926000EEA22EE50EFCFEAFFE96E0B0EF0
:10128000E926000EEA22EF506BE131D0FD0EDBCFF4
:10129000E9FFFE0EDBCFEAFF020EE926000EEA228E
:1012A000EE50EFCFEAFFE96E0B0EE926000EEA22C0
:1012B000EF5056E1FDC0E9FFFEC0EAFF060EE92649
:1012C000000EEA22010EEECFDBFF020EEDCFDBFFB8
:1012D0000B0EE76E010EDBCFE9FF020EDBCFEAFF5C
:1012E000E750E926000EEA22EF50100B03E1040E4E
:1012F000DF6E36D01A0EE76E010EDBCFE9FF020E6D
:10130000DBCFEAFFE750E926000EEA22010EE926CC
:10131000000EEA22EFCF02F002C003F0026A1A0EBA
:10132000E76E010EDBCFE9FF020EDBCFEAFFE750ED
:10133000E926000EEA22EF5000010210006E03C001
:1013400001F0FD0EDBCFE9FFFE0EDBCFEAFF040E5E
:10135000E926000EEA2200C0EEFF01C0EDFF5BD7D8
:10136000DF50006E120EE15C02E2E16AE552E16ECE
:101370000050E552E7CFD9FF1200D9CFE6FFE1CF09
:10138000D9FF020EE66EE66AFE0EE66E010EE66E0E
:10139000D950F90FE96EFF0EDA20EA6EEECFE6FFC4
:1013A000EECFE6FFEECFE6FFEFCFE6FFFD0EDBCFA1
:1013B000E6FFFE0EDBCFE6FFB2EC1BF0006E0A0E7E
:1013C000E15E0050000902E0030E6DD0010EE76EF1
:1013D000FD0EDBCFE9FFFE0EDBCFEAFFE750E9268B
:1013E000000EEA22EFCF02F002C003F0026AFD0E07
:1013F000DBCFE9FFFE0EDBCFEAFFEF50000102106A
:10140000006E03C001F0550E001802E1AA0E01188B
:1014100002E0020E48D0020EE66EE66A360EE66E76
:10142000E66AD950F90FE96EFF0EDA20EA6EEECFC8
:10143000E6FFEECFE6FFEECFE6FFEFCFE6FFFD0ED5
:10144000DBCFE6FFFE0EDBCFE6FFB2EC1BF0006E5B
:101450000A0EE15E0050000925E1010EE76EFD0E67
:10146000DBCFE9FFFE0EDBCFEAFFE750E926000EF7
:10147000EA22EFCF03F003C004F0036AFD0EDBCFD6
:10148000E9FFFE0EDBCFEAFFEF5000010310016E13
:1014900004C002F0460E011805E1410E021802E1F7
:1014A000000E01D0010EE552E7CFD9FF1200D9CFCF
:1014B000E6FFE1CFD9FF350EE1260001FD6BFE6BA3
:1014C000D950FD0FE96EFF0EDA20EA6EEE50ED10F6
:1014D00002E1CCEF0EF088EC1AF0010B03E0020EF3
:1014E000CDEF0EF0250EDB6A260EDB6A270EDB6AD7
:1014F000280EDB6AD950250FE96EDACFEAFFEECF6E
:10150000E6FFEECFE6FFEECFE6FFEFCFE6FFD950E6
:10151000010FE66E000EDA20E66E2FDF006E060E7B
:10152000E15E0050DF6EDF0401E092D0100EE66E47
:10153000E66ABE0EE66E010EE66ED950250FE96E24
:10154000DACFEAFFEECFE6FFEECFE6FFEECFE6FF23
:10155000EFCFE6FFD950010FE66E000EDA20E66EFF
:10156000B2EC1BF0006E0A0EE15E0050000902E0D2
:10157000030E6DD0050EDB506BE00C0EDBCF00F0E0
:10158000016A026A036A180E1F0B07E0D890003642
:10159000013602360336E806F9E10B0EDBCF04F024
:1015A000056A066A076A100E1F0B07E0D89004361A
:1015B000053606360736E806F9E1045000120550F4
:1015C000011206500212075003120A0EDBCF08F078
:1015D00008C009F0086A0A6A0B6A0850001209502C
:1015E00001120A5002120B500312090EDBCF0CF04D
:1015F0000D6A0E6A0F6A0C5000120D5001120E5047
:1016000002120F500312250E00C0DBFF260E01C090
:10161000DBFF270E02C0DBFF280E03C0DBFFD95023
:10162000250FE96EDACFEAFFEECFE6FFEECFE6FF59
:10163000EECFE6FFEFCFE6FFD950010FE66E000ECA
:10164000DA20E66E9ADE006E060EE15E0050DF6E76
:10165000030EDF5C24E0DF5001E003D3240EE66ECE
:10166000E66A0D0EE66EE66AD950250FE96EDACF0E
:10167000EAFFEECFE6FFEECFE6FFEECFE6FFEFCFDD
:10168000E6FFD950010FE66E000EDA20E66EB2ECEE
:101690001BF0006E0A0EE15E0050000902E0010E30
:1016A0007CD3D950170FE96EDACFEAFF0D0EE95E51
:1016B000000EEA5A010EE926000EEA22EFCF02F0F0
:1016C00002C003F0026AD950170FE96EDACFEAFFC1
:1016D0000D0EE95E000EEA5AEF5000010210006E96
:1016E000290E00C0DBFF2A0E03C0DBFF2B0EDB6AD6
:1016F0002C0EDB6A290EDBCF00F02A0EDBCF01F0C7
:101700002B0EDBCF02F02C0EDBCF03F000500110CC
:101710000210031001E07ED0D950250FE96EDACF18
:10172000EAFF0D0EE95E000EEA5A030EE926000EEE
:10173000EA22EFCF00F0016A026A036A180E1F0B5B
:1017400007E0D8900036013602360336E806F9E1A4
:10175000D950250FE96EDACFEAFF0D0EE95E000ED3
:10176000EA5A020EE926000EEA22EFCF04F0056ADB
:10177000066A076A100E1F0B07E0D890043605367C
:1017800006360736E806F9E104500012055001124A
:101790000650021207500312D950250FE96EDACF16
:1017A000EAFF0D0EE95E000EEA5A010EE926000E70
:1017B000EA22EFCF08F008C009F0086A0A6A0B6A4B
:1017C00008500012095001120A5002120B50031265
:1017D000D950250FE96EDACFEAFF0D0EE95E000E53
:1017E000EA5AEFCF0CF00D6A0E6A0F6A0C50001225
:1017F0000D5001120E5002120F500312290E00C09C
:10180000DBFF2A0E01C0DBFF2B0E02C0DBFF2C0E1C
:1018100003C0DBFF040EDBCF00F0016A026A036A3B
:10182000D950290FE96EDACFEAFF00C027F001C0D6
:1018300028F002C029F003C02AF0EECF22F0EECF4C
:1018400023F0EECF24F0EFCF25F0D5EC27F021C028
:10185000EDFF20C0EDFF1FC0EDFF1EC0EFFFD95010
:101860000F0FE96EDACFEAFF0D0EE95E000EEA5ABD
:10187000010EE926000EEA22EFCF04F004C005F0C5
:10188000046AD9500F0FE96EDACFEAFF0D0EE95E58
:10189000000EEA5AEF5000010410006E05C001F07E
:1018A000026A036AD950250FE96EDACFEAFFEE50DB
:1018B0000026EE500122EE500222EE500322FD0ED1
:1018C000DBCFE9FFFE0EDBCFEAFF0A0EE926000EB2
:1018D000EA2200C0EEFF01C0EEFF02C0EEFF03C02F
:1018E000EEFFFD0EDBCFE9FFFE0EDBCFEAFFEE528F
:1018F000010EDBCFEFFFD950120FE96EDACFEAFF0E
:101900000D0EE95E000EEA5A010EE926000EEA22EB
:10191000EFCF02F002C003F0026AD950120FE96E55
:10192000DACFEAFF0D0EE95E000EEA5AEF50021020
:10193000006E03C001F0FD0EDBCFE9FFFE0EDBCF32
:10194000EAFF040EE926000EEA2200C0EEFF01C005
:10195000EDFFD950140FE96EDACFEAFF0D0EE95E04
:10196000000EEA5A010EE926000EEA22EFCF02F03D
:1019700002C003F0026AD950140FE96EDACFEAFF11
:101980000D0EE95E000EEA5AEF500210006E2D0EA9
:1019900000C0DBFF2E0E03C0DBFF2F0EDB6A300E14
:1019A000DB6A2D0EDBCF00F02E0EDBCF01F02F0E09
:1019B000DBCF02F0300EDBCF03F00050011002103D
:1019C000031001E07ED0D950210FE96EDACFEAFF93
:1019D0000D0EE95E000EEA5A030EE926000EEA2219
:1019E000EFCF00F0016A026A036A180E1F0B07E0CE
:1019F000D8900036013602360336E806F9E1D950B0
:101A0000210FE96EDACFEAFF0D0EE95E000EEA5A09
:101A1000020EE926000EEA22EFCF04F0056A066AFC
:101A2000076A100E1F0B07E0D890043605360636FD
:101A30000736E806F9E1045000120550011206507D
:101A4000021207500312D950210FE96EDACFEAFFD4
:101A50000D0EE95E000EEA5A010EE926000EEA229A
:101A6000EFCF08F008C009F0086A0A6A0B6A08504C
:101A70000012095001120A5002120B500312D950E1
:101A8000210FE96EDACFEAFF0D0EE95E000EEA5A89
:101A9000EFCF0CF00D6A0E6A0F6A0C5000120D5059
:101AA00001120E5002120F5003122D0E00C0DBFF68
:101AB0002E0E01C0DBFF2F0E02C0DBFF300E03C075
:101AC000DBFFFD0EDBCFE9FFFE0EDBCFEAFFEE52C0
:101AD000EFCF1AF01B6A1C6A1D6AD9500F0FE96E0E
:101AE000DACFEAFF0D0EE95E000EEA5A010EE92692
:101AF000000EEA22EFCF14F014C015F0146AD9508A
:101B00000F0FE96EDACFEAFF0D0EE95E000EEA5A1A
:101B1000EF5000011410106E15C011F0126A136A14
:101B2000D9502D0FE96EDACFEAFF1050EE5C0C6E43
:101B30001550EE580D6E1250EE580E6E1350EE58B2
:101B40000F6ED950290FE96EDACFEAFFEE500C5C28
:101B5000086EEE500D58096EEE500E580A6EEE509B
:101B60000F580B6EFD0EDBCFE9FFFE0EDBCFEAFF59
:101B7000040EE926000EEA22EECF16F0EFCF17F0A2
:101B8000040E0F0B05E0D89017321632E806FBE181
:101B9000186A196A1650085C046E17500958056EC9
:101BA00018500A58066E19500B58076E04C022F0E0
:101BB00005C023F006C024F0256E1AC027F01BC014
:101BC00028F01CC029F01DC02AF00DEC28F022C01E
:101BD00000F023C001F024C002F025C003F0020E83
:101BE0000026000E012202220322310E00C0DBFF7C
:101BF000320E01C0DBFF330E02C0DBFF340E03C028
:101C0000DBFFFD0EDBCFE9FFFE0EDBCFEAFF080EA8
:101C1000E926000EEA22310EDBCFEEFF320EDBCFDB
:101C2000EDFF010EDF6ED950310FE96EDACFEAFF1A
:101C3000F70EEE5C0F0EEE58000EEE58000EEE584A
:101C400002E3020EDF6ED950310FE96EDACFEAFF00
:101C5000F70EEE5CFF0EEE58000EEE58000EEE583A
:101C600002E3070E9AD0FD0EDBCFE9FFFE0EDBCFBD
:101C7000EAFFDFCFEFFF290EDBCF00F02A0EDBCF2C
:101C800001F02B0EDBCF02F02C0EDBCF03F0FD0EAC
:101C9000DBCFE9FFFE0EDBCFEAFF0A0EE926000EDE
:101CA000EA22EE500026EE500122EE500222EE50C3
:101CB0000322FD0EDBCFE9FFFE0EDBCFEAFF0E0EA7
:101CC000E926000EEA2200C0EEFF01C0EEFF02C0CE
:101CD000EEFF03C0EEFF290EDBCF00F02A0EDBCFB4
:101CE00001F02B0EDBCF02F02C0EDBCF03F0FD0E4C
:101CF000DBCFE9FFFE0EDBCFEAFF0A0EE926000E7E
:101D0000EA22EE500026EE500122EE500222EE5062
:101D10000322FD0EDBCFE9FFFE0EDBCFEAFF040E50
:101D2000E926000EEA22EECF04F0EFCF05F0040E14
:101D30000F0B05E0D89005320432E806FBE1066A95
:101D4000076A04500026055001220650022207505F
:101D50000322FD0EDBCFE9FFFE0EDBCFEAFF120E02
:101D6000E926000EEA2200C0EEFF01C0EEFF02C02D
:101D7000EEFF03C0EEFFFD0EDBCFE9FFFE0EDBCF73
:101D8000EAFF020EE926000EEA22EF6AFD0EDBCF23
:101D9000FDF0FE0EDBCFFEF0000E006E350EE15CB6
:101DA00002E2E16AE552E16E0050E552E7CFD9FF69
:101DB0001200D9CFE6FFE1CFD9FF3B0EE126390E65
:101DC000FDC0DBFF3A0EFEC0DBFFD950390FE96ED4
:101DD000DACFEAFFEE50ED1002E1060ED6D0390E52
:101DE000DBCFE9FF3A0EDBCFEAFF020EE926000E59
:101DF000EA22EF6AD950190F006EDACF01F0390EDE
:101E0000DBCFE9FF3A0EDBCFEAFF060EE926000E34
:101E1000EA2200C0EEFF01C0EDFFD9500D0F006EA9
:101E2000DACF01F0030E00C0DBFF040EDACFDBFFD8
:101E3000FD0EDBCFE6FFFE0EDBCFE6FFD950010F34
:101E4000E66E000EDA20E66EBCEC08F0E552E552D4
:101E5000E552E552DF6EDF5002E0DF5096D0190EFA
:101E6000DB5004E0240EDB50100B02E0030E8DD09B
:101E7000340EDBCF02F002C003F0026A330EDB50F7
:101E80000210006E03C001F0390EDBCFE9FF3A0EFD
:101E9000DBCFEAFF1E0EE926000EEA2200C0EEFFAD
:101EA00001C0EDFF380EDBCF00F0016A026A036A61
:101EB000180E1F0B07E0D8900036013602360336A5
:101EC000E806F9E1370EDBCF04F0056A066A076A17
:101ED000100E1F0B07E0D89004360536063607367D
:101EE000E806F9E1045000120550011206500212F2
:101EF00007500312360EDBCF08F008C009F0086A5D
:101F00000A6A0B6A08500012095001120A500212A4
:101F10000B500312350EDBCF0CF00D6A0E6A0F6A00
:101F20000C5000120D5001120E5002120F500312ED
:101F3000390EDBCFE9FF3A0EDBCFEAFF1A0EE926B6
:101F4000000EEA2200C0EEFF01C0EEFF02C0EEFF6D
:101F500003C0EEFF390EDBCFE9FF3A0EDBCFEAFF1D
:101F6000160EE926000EEA22EE6AEE6AEE6AEE6AC4
:101F7000390EDBCFE9FF3A0EDBCFEAFF020EE9268E
:101F8000000EEA22010EEF6E000E006E3B0EE15CC9
:101F900002E2E16AE552E16E0050E552E7CFD9FF77
:101FA0001200D9CFE6FFE1CFD9FF110EE126FD0ED9
:101FB000DBCF24F0FE0EDBCF25F00B0E24C0DBFFC1
:101FC0000C0E25C0DBFF0F0EFDC0DBFF100EFEC0A8
:101FD000DBFFF90EDBCFE9FFFA0EDBCFEAFFEE6A9B
:101FE000ED6AD9500F0FE96EDACFEAFFEE50ED102F
:101FF00002E1060E6DD20F0EDBCFE9FF100EDBCF34
:10200000EAFF020EE926000EEA22EF50010B02E180
:10201000050E5ED20F0EDBCFE9FF100EDBCFEAFF1D
:102020001A0EE926000EEA22EECF04F0EECF05F0FC
:10203000EECF06F0EFCF07F00F0EDBCFE9FF100E6B
:10204000DBCFEAFF160EE926000EEA22EE50045C12
:10205000006EEE500558016EEE500658026EEE50BE
:102060000758036E070E00C0DBFF080E01C0DBFF40
:10207000090E02C0DBFF0A0E03C0DBFFFB0EDBCF45
:1020800000F0FC0EDBCF01F0026A036AD950070FA3
:10209000E96EDACFEAFF0050EE5C0150EE580250D4
:1020A000EE580350EE580CE2070EDBCF24F0080E7A
:1020B000DBCF25F0FB0E24C0DBFFFC0E25C0DBFFD1
:1020C000D950FB0FE96EFF0EDA20EA6EEE50ED10EC
:1020D00001E1F0D10F0EDBCFE9FF100EDBCFEAFFFD
:1020E000160EE926000EEA22EECF00F0EECF01F048
:1020F000EECF02F0010E0116026A036A00500110D1
:102100000210031001E004D10F0EDBCFE9FF100E27
:10211000DBCFEAFFEE52EFCF04F0056A066A076AEA
:102120000F0EDBCFE9FF100EDBCFEAFF160EE9261C
:10213000000EEA22EECF22F0EECF23F0EECF24F015
:10214000EFCF25F0276A020E286E296A2A6A0DEC65
:1021500028F004C027F005C028F006C029F007C009
:102160002AF00DEC28F01EC000F01FC001F020C0C6
:1021700002F021C003F01E501F102010211069E151
:102180000F0EDBCFE9FF100EDBCFEAFF160EE926BC
:10219000000EEA22EECF02F0EECF03F0EECF04F015
:1021A000EFCF05F002500310041005100FE10F0EE1
:1021B000DBCFE9FF100EDBCFEAFF1E0EE926000E93
:1021C000EA22EECF00F0EFCF01F016D00F0EDBCFFA
:1021D000E9FF100EDBCFEAFF200EE926000EEA220F
:1021E000EECFE6FFEFCFE6FFACEC00F0E552E552B4
:1021F000F3CF00F0F4CF01F0010E00C0DBFF020EC0
:1022000001C0DBFFD950010FE96EDACFEAFF010E02
:10221000D880EE54000EED5401E34ED10F0EDBCF0B
:10222000E9FF100EDBCFEAFF200EE926000EEA22BE
:10223000010EDBCFEEFF020EDBCFEDFF0F0EDBCF8B
:10224000E9FF100EDBCFEAFF030EE926000EEA22BB
:10225000EF6A0F0EDBCFE9FF100EDBCFEAFF200E97
:10226000E926000EEA22EECFE6FFEFCFE6FF79EC9B
:1022700002F0E552E552030E22C0DBFF040E23C03C
:10228000DBFF050E24C0DBFF060E25C0DBFF030EBF
:10229000DBCF00F0040EDBCF01F0050EDBCF02F048
:1022A000060EDBCF03F0005001100210031001E115
:1022B00003D10F0EDBCFE9FF100EDBCFEAFF030ED9
:1022C000E926000EEA22EF50EF2A006E016A026A48
:1022D000036AD950030FE96EDACFEAFFEE50002609
:1022E000EE500122EE500222EE5003220F0EDBCF01
:1022F000E9FF100EDBCFEAFF220EE926000EEA22EC
:1023000000C0EEFF01C0EEFF02C0EEFF03C0EEFF13
:102310000F0EDBCFE9FF100EDBCFEAFF160EE9262A
:10232000000EEA22EECF00F0EFCF01F00001010E27
:102330000116000ED8800056020E01560D0E00C088
:10234000DBFF0E0E01C0DBFF0D0EDBCF00F00E0E2B
:10235000DBCF01F0FB0EDBCF02F0FC0EDBCF03F096
:102360000050025C015003580CE2FB0EDBCF24F05E
:10237000FC0EDBCF25F00D0E24C0DBFF0E0E25C0BA
:10238000DBFF0D0EDBCFE6FF0E0EDBCFE6FF0F0E01
:10239000DBCFE9FF100EDBCFEAFF160EE926000EB9
:1023A000EA22EECF00F0EECF01F0EECF02F0010E08
:1023B0000116026A036A00C0E6FF01C0E6FF0F0EC5
:1023C000DBCFE9FF100EDBCFEAFF220EE926000E7D
:1023D000EA22EECFE6FFEECFE6FFEECFE6FFEFCF4D
:1023E000E6FFD950FD0FE96EFF0EDA20EA6EEE50DF
:1023F000ED1003E1046A056A06D00B0EDBCF04F092
:102400000C0EDBCF05F004C0E6FF05C0E6FFB2EC22
:102410001BF0066E0A0EE15E0650DF6EDF504CE1E7
:102420000D0EDBCF00F00E0EDBCF01F0026A036A67
:102430000F0EDBCFE9FF100EDBCFEAFF160EE92609
:10244000000EEA220050EE260150EE220250EE224B
:102450000350EE220D0EDBCF00F00E0EDBCF01F0AD
:10246000D9500B0FE96EDACFEAFF0050EE2601508B
:10247000ED220D0EDBCF00F00E0EDBCF01F0D950B8
:10248000FB0FE96EFF0EDA20EA6E0050EE5E01509F
:10249000ED5A0D0EDBCF00F00E0EDBCF01F0F90E82
:1024A000DBCFE9FFFA0EDBCFEAFF0050EE2601504A
:1024B000ED2206D6000E0CD00F0EDBCFE9FF100E7A
:1024C000DBCFEAFF020EE926000EEA22EF6A010ED8
:1024D000006E110EE15C02E2E16AE552E16E00502D
:1024E000E552E7CFD9FF1200D9CFE6FFE1CFD9FF00
:1024F000100EE126FD0EDBCF24F0FE0EDBCF25F023
:102500000A0E24C0DBFF0B0E25C0DBFF0E0EFDC044
:10251000DBFF0F0EFEC0DBFFF90EDBCFE9FFFA0E8B
:10252000DBCFEAFFEE6AED6AD9500E0FE96EDACF23
:10253000EAFFEE50ED1002E1060ED5D20E0EDBCF13
:10254000E9FF0F0EDBCFEAFF020EE926000EEA22BA
:10255000EF50010B02E1050EC6D2D950FB0FE96E18
:10256000FF0EDA20EA6EEE50ED1029E10E0EDBCF01
:10257000E9FF0F0EDBCFEAFF020EE926000EEA228A
:10258000EF50400B10E0E66AE66AE66AE66A000E83
:10259000E66EE66A74EC1CF0006E060EE15E00501A
:1025A000000901E094D20E0EDBCFE9FF0F0EDBCF66
:1025B000EAFF020EE926000EEA22EF9C94D20E0EEC
:1025C000DBCFE9FF0F0EDBCFEAFF020EE926000E9C
:1025D000EA22EF50400B0CE10E0EDBCFE9FF0F0EAD
:1025E000DBCFEAFF160EE926000EEA22EE6AEE9035
:1025F0000E0EDBCFE9FF0F0EDBCFEAFF1A0EE92646
:10260000000EEA22EECF04F0EECF05F0EECF06F09A
:10261000EFCF07F00E0EDBCFE9FF0F0EDBCFEAFFA7
:10262000160EE926000EEA22EE50045C006EEE5013
:102630000558016EEE500658026EEE500758036EB4
:10264000060E00C0DBFF070E01C0DBFF080E02C054
:10265000DBFF090E03C0DBFFFB0EDBCF00F0FC0E3F
:10266000DBCF01F0026A036AD950060FE96EDACFB8
:10267000EAFF0050EE5C0150EE580250EE58035055
:10268000EE580CE2060EDBCF24F0070EDBCF25F070
:10269000FB0E24C0DBFFFC0E25C0DBFFD950FB0F77
:1026A000E96EFF0EDA20EA6EEE50ED1001E10DD278
:1026B0000E0EDBCFE9FF0F0EDBCFEAFF160EE92689
:1026C000000EEA22EECF00F0EFCF01F00001010E84
:1026D00001160050011001E027D10E0EDBCFE9FFFB
:1026E0000F0EDBCFEAFFEE52EFCF04F0056A066A69
:1026F000076A0E0EDBCFE9FF0F0EDBCFEAFF160EE7
:10270000E926000EEA22EECF22F0EECF23F0EECF44
:1027100024F0EFCF25F0276A020E286E296A2A6A74
:102720000DEC28F004C027F005C028F006C029F001
:1027300007C02AF00DEC28F01EC000F01FC001F009
:1027400020C002F021C003F01E501F1020102110E5
:1027500064E10E0EDBCFE9FF0F0EDBCFEAFF160EB2
:10276000E926000EEA22EECF02F0EECF03F0EECF24
:1027700004F0EFCF05F002500310041005100FE134
:102780000E0EDBCFE9FF0F0EDBCFEAFF1E0EE926B0
:10279000000EEA22EECF00F0EFCF01F016D00E0EC1
:1027A000DBCFE9FF0F0EDBCFEAFF200EE926000E9C
:1027B000EA22EECFE6FFEFCFE6FFACEC00F0E55209
:1027C000E552F3CF00F0F4CF01F000C0DEFF01C00E
:1027D000DDFFD9CFE9FFDACFEAFF010ED880EE5452
:1027E000000EED5401E373D10E0EDBCFE9FF0F0EA7
:1027F000DBCFEAFF200EE926000EEA22DECFEEFF55
:10280000DDCFEDFF0E0EDBCFE9FF0F0EDBCFEAFFD2
:10281000030EE926000EEA22EF6A0E0EDBCFE9FF77
:102820000F0EDBCFEAFF200EE926000EEA22EECFE4
:10283000E6FFEFCFE6FF79EC02F0E552E552020E3B
:1028400022C0DBFF030E23C0DBFF040E24C0DBFF2E
:10285000050E25C0DBFF020EDBCF00F0030EDBCF41
:1028600001F0040EDBCF02F0050EDBCF03F00050C9
:1028700001100210031001E12AD10E0EDBCFE9FF97
:102880000F0EDBCFEAFF030EE926000EEA22EF501F
:10289000EF2A006E016A026A036AD950020FE96EDC
:1028A000DACFEAFFEE500026EE500122EE5002226F
:1028B000EE5003220E0EDBCFE9FF0F0EDBCFEAFF57
:1028C000220EE926000EEA2200C0EEFF01C0EEFF54
:1028D00002C0EEFF03C0EEFF0E0EDBCFE9FF0F0ECE
:1028E000DBCFEAFF220EE926000EEA22EECFE6FF5A
:1028F000EECFE6FFEECFE6FFEFCFE6FFE66EE66A4D
:1029000074EC1CF0006E060EE15E0050000901E060
:10291000DED00E0EDBCFE9FF0F0EDBCFEAFF020E9B
:10292000E926000EEA22EF8C0E0EDBCFE9FF0F0E38
:10293000DBCFEAFF160EE926000EEA22EECF00F00A
:10294000EFCF01F00001010E0116000ED8800056F5
:10295000020E01560C0E00C0DBFF0D0E01C0DBFFA6
:102960000C0EDBCF00F00D0EDBCF01F0FB0EDBCF4A
:1029700002F0FC0EDBCF03F00050025C0150035864
:102980000CE2FB0EDBCF24F0FC0EDBCF25F00C0EAF
:1029900024C0DBFF0D0E25C0DBFF0C0EDBCF00F0EB
:1029A0000D0EDBCF01F0026A036A00C0E6FF01C032
:1029B000E6FF02C0E6FF03C0E6FF0A0EDBCFE6FF3C
:1029C0000B0EDBCFE6FF74EC1CF0046E060EE15E2E
:1029D0000450000901E07BD00C0EDBCF00F00D0E9F
:1029E000DBCF01F0026A036A0E0EDBCFE9FF0F0EA8
:1029F000DBCFEAFF160EE926000EEA220050EE2693
:102A00000150EE220250EE220350EE220C0EDBCFDC
:102A100000F00D0EDBCF01F0D9500A0FE96EDACFCE
:102A2000EAFF0050EE260150ED220C0EDBCF00F045
:102A30000D0EDBCF01F0D950FB0FE96EFF0EDA204F
:102A4000EA6E0050EE5E0150ED5A0C0EDBCF00F046
:102A50000D0EDBCF01F0F90EDBCFE9FFFA0EDBCF75
:102A6000EAFF0050EE260150ED220E0EDBCFE9FF0B
:102A70000F0EDBCFEAFF160EE926000EEA22EECF9C
:102A800000F0EFCF01F00001010E0116005001101F
:102A900001E004D6E66AE66AE66AE66A000EE66ED9
:102AA000E66A74EC1CF0006E060EE15E0050000950
:102AB0000EE10E0EDBCFE9FF0F0EDBCFEAFF020EB9
:102AC000E926000EEA22EF9CE9D5000E0CD00E0E8E
:102AD000DBCFE9FF0F0EDBCFEAFF020EE926000E87
:102AE000EA22EF6A010E006E100EE15C02E2E16A7A
:102AF000E552E16E0050E552E7CFD9FF1200D9CF81
:102B0000E6FFE1CFD9FF100EE1260E0EFDC0DBFF80
:102B10000F0EFEC0DBFFD9500E0FE96EDACFEAFFD1
:102B2000EE50ED1002E1060EBED20E0EDBCFE9FF35
:102B30000F0EDBCFEAFF020EE926000EEA22EF506D
:102B4000010B02E1050EAFD2FB0EDBCF00F0FC0E55
:102B5000DBCF01F0FD0EDBCF02F0FE0EDBCF03F08A
:102B60000E0EDBCFE9FF0F0EDBCFEAFF1A0EE926D0
:102B7000000EEA220050EE5C0150EE580250EE5872
:102B80000350EE5816E20E0EDBCFE9FF0F0EDBCF3F
:102B9000EAFF1A0EE926000EEA22FB0EEECFDBFF5B
:102BA000FC0EEECFDBFFFD0EEECFDBFFFE0EEECF19
:102BB000DBFF0E0EDBCFE9FF0F0EDBCFEAFF160EB9
:102BC000E926000EEA220A0EEECFDBFF0B0EEECF57
:102BD000DBFF0C0EEECFDBFF0D0EEECFDBFF0E0E9C
:102BE000DBCFE9FF0F0EDBCFEAFF160EE926000E62
:102BF000EA22EE6AEE6AEE6AEE6AD950FB0FE96EDF
:102C0000FF0EDA20EA6ED880000EEE54000EEE546D
:102C1000000EEE54000EEE5401E337D20E0EDBCF61
:102C2000E9FF0F0EDBCFEAFFEE52EFCF22F0236A6F
:102C3000246A256A276A020E286E296A2A6AD5EC58
:102C400027F0020E1EC0DBFF030E1FC0DBFF040EC9
:102C500020C0DBFF050E21C0DBFFD9500A0FE96E53
:102C6000DACFEAFFD880000EEE54000EEE54000ECC
:102C7000EE54000EEE5401E3CED00A0EDBCF08F086
:102C80000B0EDBCF09F00C0EDBCF0AF00D0EDBCF05
:102C90000BF00806000E095A0A5A0B5A08C022F017
:102CA00009C023F00AC024F00BC025F0020EDBCFD0
:102CB00027F0030EDBCF28F0040EDBCF29F0050E42
:102CC000DBCF2AF00DEC28F022C004F023C005F081
:102CD00024C006F025C007F0FB0EDBCF00F0FC0E91
:102CE000DBCF01F0FD0EDBCF02F0FE0EDBCF03F0F9
:102CF0000006000E015A025A035A00C022F001C019
:102D000023F002C024F003C025F0020EDBCF27F031
:102D1000030EDBCF28F0040EDBCF29F0050EDBCF4E
:102D20002AF00DEC28F00450225C05502358065080
:102D30002458075025586FE30A0EDBCF00F00B0E26
:102D4000DBCF01F00C0EDBCF02F00D0EDBCF03F07A
:102D50000006000E015A025A035A020EDBCF04F09D
:102D6000030EDBCF05F0040EDBCF06F0050EDBCF44
:102D700007F00406000E055A065A075A041E051EDF
:102D8000061E071E045000160550011606500216B6
:102D9000075003160E0EDBCFE9FF0F0EDBCFEAFF65
:102DA000160EE926000EEA2200C0EEFF01C0EEFF7B
:102DB00002C0EEFF03C0EEFF0E0EDBCFE9FF0F0EE9
:102DC000DBCFEAFF160EE926000EEA22EECF00F076
:102DD000EECF01F0EECF02F0EFCF03F0D950FB0FB2
:102DE000E96EFF0EDA20EA6E0050EE5E0150EE5AF8
:102DF0000250EE5A0350EE5A0E0EDBCFE9FF0F0ED3
:102E0000DBCFEAFF200EE926000EEA22EECFDEFF3E
:102E1000EDCFDDFF1CD00E0EDBCFE9FF0F0EDBCFB9
:102E2000EAFF1E0EE926000EEA22EECFDEFFEDCF0E
:102E3000DDFF0E0EDBCFE9FF0F0EDBCFEAFF200E2A
:102E4000E926000EEA22DECFEEFFDDCFEDFF020E17
:102E5000DBCF00F0030EDBCF01F0040EDBCF02F07E
:102E6000050EDBCF03F0D950FB0FE96EFF0EDA2021
:102E7000EA6EEE50005CEE500158EE500258EE50F3
:102E8000035866E2DECFE6FFDDCFE6FFACEC00F0F4
:102E9000E552E552F3CFDEFFF4CFDDFFD9CFE9FFF6
:102EA000DACFEAFF010ED880EE54000EED5401E3B4
:102EB000EED0DECF00F0DDCF01F00E0EDBCFE9FF6C
:102EC0000F0EDBCFEAFF080EE926000EEA22EECF56
:102ED00002F0EFCF03F00250005C0350015801E311
:102EE000D6D00E0EDBCFE9FF0F0EDBCFEAFF200EB0
:102EF000E926000EEA22DECFEEFFDDCFEDFF0E0E5B
:102F0000DBCFE9FF0F0EDBCFEAFF160EE926000E3E
:102F1000EA22020EDB50EE26030EDB50EE22040EF8
:102F2000DB50EE22050EDB50EE22D950FB0FE96E8E
:102F3000FF0EDA20EA6E020EDB50EE5E030EDB506F
:102F4000EE5A040EDB50EE5A050EDB50EE5A7FD7D8
:102F50000E0EDBCFE9FF0F0EDBCFEAFF160EE926E0
:102F6000000EEA22FB0EDB50EE26FC0EDB50EE22BA
:102F7000FD0EDB50EE22FE0EDB50EE22DECFE6FF32
:102F8000DDCFE6FF79EC02F0E552E552060E22C0F5
:102F9000DBFF070E23C0DBFF080E24C0DBFF090E9A
:102FA00025C0DBFF060EDBCF00F0070EDBCF01F004
:102FB000080EDBCF02F0090EDBCF03F0005001104A
:102FC0000210031064E0FB0EDBCF22F0FC0EDBCF1F
:102FD00023F0FD0EDBCF24F0FE0EDBCF25F0276AB9
:102FE000020E286E296A2A6A0DEC28F02250E66E3D
:102FF0000E0EDBCFE9FF0F0EDBCFEAFF030EE92653
:10300000000EEA22E552E750EF6EFB0EDBCF00F038
:10301000FC0EDBCF01F0FD0EFE0E010E0116026A62
:10302000036A00500110021003102FE00E0EDBCFD8
:10303000E9FF0F0EDBCFEAFF030EE926000EEA22BE
:10304000EF50EF2A006E016A026A036AD950060F38
:10305000E96EDACFEAFFEE500026EE500122EE5084
:103060000222EE5003220E0EDBCFE9FF0F0EDBCF64
:10307000EAFF220EE926000EEA2200C0EEFF01C0A0
:10308000EEFF02C0EEFF03C0EEFF000E0CD00E0EEE
:10309000DBCFE9FF0F0EDBCFEAFF020EE926000EC1
:1030A000EA22EF6A010E006E100EE15C02E2E16AB4
:1030B000E552E16E0050E552E7CFD9FF1200D9CFBB
:1030C000E6FFE1CFD9FF2F0EE1262D0EFDC0DBFF7D
:1030D0002E0EFEC0DBFFD9502D0FE96EDACFEAFFCE
:1030E000EE50ED1002E1060E70D0D9500D0F006EBB
:1030F000DACF01F02D0EDBCFE9FF2E0EDBCFEAFF9A
:10310000060EE926000EEA2200C0EEFF01C0EDFF28
:10311000D950010F006EDACF01F0FD0EDBCFE9FFD1
:10312000FE0EDBCFEAFF020EE926000EEA2200C007
:10313000EEFF01C0EDFFFB0EDBCFE6FFFC0EDBCFA9
:10314000E6FFFD0EDBCFE6FFFE0EDBCFE6FFBCECBD
:1031500008F0E552E552E552E552DF6EDF5031E10D
:103160000D0EDB5021E0180EDBA81CD0280EDBCFA3
:1031700002F002C003F0026A270EDB5000010210C9
:10318000006E03C001F0FD0EDBCFE9FFFE0EDBCFCA
:10319000EAFF040EE926000EEA2200C0EEFF01C09D
:1031A000EDFF02D0040EDF6EDF500BE1FD0EDBCF32
:1031B000E6FFFE0EDBCFE6FFFEEC02F0E552E55245
:1031C000DF6E030EDF5C02E1040EDF6EDF50006E87
:1031D0002F0EE15C02E2E16AE552E16E0050E55239
:1031E000E7CFD9FF1200D9CFE6FFE1CFD9FF2F0EED
:1031F000E1262D0EFDC0DBFF2E0EFEC0DBFFD950F9
:103200002D0FE96EDACFEAFFEE50ED1002E1060E67
:1032100039D0D9500D0F006EDACF01F02D0EDBCF73
:10322000E9FF2E0EDBCFEAFF060EE926000EEA22AA
:1032300000C0EEFF01C0EDFFD950010F006EDACFE4
:1032400001F0FD0EDBCFE9FFFE0EDBCFEAFF020E41
:10325000E926000EEA2200C0EEFF01C0EDFFD950C2
:10326000FB0FE96EFF0EDA20EA6EEE50ED100CE176
:10327000FD0EDBCFE6FFFE0EDBCFE6FFFEEC02F03D
:10328000E552E552DF6E4ED0FD0EDBCFE6FFFE0EBF
:10329000DBCFE6FF6BEC05F0E552E552DF6E030E87
:1032A000DF5C0FE1FD0EDBCFE9FFFE0EDBCFEAFFB7
:1032B000080EE926000EEA22EE6AEE6AEE6AEE6A6F
:1032C000DF6ADF502FE1FB0EDBCFE6FFFC0EDBCF2A
:1032D000E6FFFD0EDBCFE6FFFE0EDBCFE6FFF6ECF2
:1032E00006F0E552E552E552E552FD0EDBCFE6FF72
:1032F000FE0EDBCFE6FF97EC03F0E552E552DF6E02
:10330000030EDF5C0FE1FD0EDBCFE9FFFE0EDBCF2E
:10331000EAFF080EE926000EEA22EE6AEE6AEE6A7D
:10332000EE6ADF6ADF50006E2F0EE15C02E2E16AB6
:0E333000E552E16E0050E552E7CFD9FF1200E2
:02333E00D9CFE5
:10334000E6FFE1CFD9FFFE0EDB50C96EC7A0FED766
:10335000C950E552E7CFD9FF1200D9CFE6FFE1CF40
:10336000D9FFE6520001F40EF26F010EF36FE6682A
:10337000E6DFE552E668E3DFE552DF6EFF0EDF5C75
:1033800004E00001F251F311F5E1DF50E552E5529E
:10339000E7CFD9FF12008B8CE668D1DFE55212002F
:1033A000400EC76E020EC66E8B8CC68A12008B9CB6
:1033B000D4DFF1DFC69A1200D9CFE6FFE1CFD9FF03
:1033C000020EE126FE0EDBAE15D0FE0EDB9EE66A97
:1033D000E66AE66AE66A770EE66EEEDF006E050ED6
:1033E000E15E0050E76E010EE7CFDBFFDB50010826
:1033F00001E280D08B8C8B9CB0DFFF0802E0FF0ED7
:103400007BD0FE0EDBCFE6FF9ADFE552FA0EDBCF74
:1034100000F0FB0EDBCF01F0FC0EDBCF02F0FD0E67
:10342000DBCF03F0180ED8900332023201320032A3
:10343000E806F9E10050E66E82DFE552FA0EDBCFD6
:1034400000F0FB0EDBCF01F0FC0EDBCF02F0FD0E37
:10345000DBCF03F0100ED89003320232013200327B
:10346000E806F9E10050E66E6ADFE552FA0EDBCFBE
:1034700000F0FB0EDBCF01F0FC0EDBCF02F0FD0E07
:10348000DBCF03F0080ED890033202320132003253
:10349000E806F9E10050E66E52DFE552FA0EDBCFA6
:1034A000E6FF4DDFE552010EDF6EFE0EDB504008F9
:1034B00002E1950EDF6EFE0EDB50480802E1870E3A
:1034C000DF6EDFCFE6FF3BDFE552FE0EDB504C0840
:1034D00003E1E66834DFE5520A0EDF6EE6682FDFAF
:1034E000E552E76E010EE7CFDBFFDB50800B02E019
:1034F000DF06F4E1010EDB50006E020EE15C02E239
:10350000E16AE552E16E0050E552E7CFD9FF1200C3
:10351000D9CFE6FFE1CFD9FF090EE12641DF220E28
:10352000C66E0A0EDF6EDF5005E0E66808DFE55282
:10353000DF06F9D7020EDB6AE66AE66AE66AE66A41
:10354000400EE66E39DF006E050EE15E00500108A8
:1035500001E0EDD0AA0EE66E010EE66EE66AE66ABE
:10356000480EE66E29DF006E050EE15E0050010890
:1035700001E084D0DF6A040EDF5C15E2E668DFDE7E
:10358000E552E66ED950030F006EDACF01F0DF503E
:103590000F010024E96E000EDA20EA6EE552E750D2
:1035A000EF6EDF2AE8D7050EDB0401E0C0D0060E7F
:1035B000DB50AA0801E0BBD0A80EF36E070EF3CFD4
:1035C000DBFF610EF36E080EF3CFDBFFD950070F60
:1035D000E96EDACFEAFFEE50ED1014E0E66AE66A33
:1035E000E66A400EE66EE90EE66EE6DE006E050E59
:1035F000E15E0050000906E0070EDB06080EE6E279
:10360000DB06E4D7D950070FE96EDACFEAFFEE50B8
:10361000ED1001E18CD0E66AE66AE66AE66A7A0EA7
:10362000E66ECADE006E050EE15E0050000901E0A4
:103630007ED0DF6A040EDF5C15E2E66880DEE552CC
:10364000E66ED950030F006EDACF01F0DF500F01A4
:103650000024E96E000EDA20EA6EE552E750EF6EC4
:10366000DF2AE8D7030EDB50400B02E00C0E01D03E
:10367000040EE76E020EE7CFDBFF59D0E66AE66A7A
:10368000E66AE66AE90EE66E97DE006E050EE15E1A
:103690000050010806E3020EF36EDB6EDE52E90E07
:1036A00007D0010EF36E020EF3CFDBFFDE52410EA8
:1036B000DD6EA80EF36E070EF3CFDBFF610EF36E27
:1036C000080EF3CFDBFFD950070FE96EDACFEAFF20
:1036D000EE50ED1014E0E66AE66AE66AE66A010E6C
:1036E000DBCFE6FF69DE006E050EE15E00500009EB
:1036F00006E0070EDB06080EE6E2DB06E4D7D9504B
:10370000070FE96EDACFEAFFEE50ED100EE0E66A41
:10371000020EE66EE66AE66A500EE66E4DDE006E5A
:10372000050EE15E0050000902E0020EDB6A020EA7
:10373000DB500001F46FF56B2EDE020EDB5004E06F
:10374000210EC66E000E02D032DE010E006E090E92
:10375000E15C02E2E16AE552E16E0050E552E7CF3A
:10376000D9FF1200D9CFE6FFE1CFD9FF040EE12641
:103770000001F451080B12E1D950F90FE96EFF0E68
:10378000DA20EA6E090EE76ED890EF36010EEB36BE
:10379000020EEB36030EEB36E706F6E1010EDF6EA6
:1037A000D950F90FE96EFF0EDA20EA6EEECFE6FF90
:1037B000EECFE6FFEECFE6FFEFCFE6FF510EE66E6F
:1037C000FBDD006E050EE15E0050000901E07ED0D9
:1037D000C80E0001F06FF16BE668B1DDE552E76EEF
:1037E000010EE7CFDBFFDB50FF0804E10001F051E1
:1037F000F111F2E1010EDB50FE0868E1F70EDBCFBC
:1038000002F0F80EDBCF03F0020ED880025603560A
:10381000F50EDB50025C006EF60EDB500358016EB5
:10382000020E00C0DBFF030E01C0DBFFD950F70F13
:10383000E96EFF0EDA20EA6EEE50ED100FE0E6685A
:103840007EDDE552F70EDB06DBCF00F0F80E01E27D
:10385000DB06DBCF01F000500110F1E1E6686FDD1F
:10386000E552E66EFD0EDBCFE9FFDB2AFE0EDBCF75
:10387000EAFF01E3DB2AE552E750EF6EF50EDB06C7
:10388000DBCF00F0F60E01E2DB06DBCF01F00050EB
:103890000110E4E1E66853DDE552020EDB06DBCF02
:1038A00000F0030E01E2DB06DBCF01F00050011057
:1038B000F1E1D950F50FE96EFF0EDA20EA6EEE5015
:1038C000ED1002E0010E01D0000EDF6E64DDDF506E
:1038D000006E040EE15C02E2E16AE552E16E005026
:1038E000E552E7CFD9FF1200D9CFE6FFE1CFD9FFEC
:1038F000030EE126010EDF6ED950FD0FE96EFF0EBB
:10390000DA20EA6EEE50ED102FE0F90EDBCF24F056
:10391000FA0EDBCF25F0DE5224C0DEFF25C0DDFF2E
:10392000DD52D950010FE96EDACFEAFFEE50ED100B
:1039300064E00001F651F71160E0FD0EDBCFE9FF16
:10394000DB2AFE0EDBCFEAFF01E3DB2AEF50E66E57
:10395000F6DCE5520001F607000EF75B010EDB0610
:10396000020EDFE2DB06DDD7F90EDBCF00F0FA0E48
:10397000DBCF01F0FB0EDBCF02F0FC0EDBCF03F060
:1039800000500110021003103AE00001F451080B3E
:1039900012E1D950F90FE96EFF0EDA20EA6E090E36
:1039A000E76ED890EF36010EEB36020EEB36030EC3
:1039B000EB36E706F6E1D950F90FE96EFF0EDA2093
:1039C000EA6EEECFE6FFEECFE6FFEECFE6FFEFCFFB
:1039D000E6FF580EE66EF0DC006E050EE15E00506C
:1039E000000957E1E668ABDCE552FE0EE66EA7DCA7
:1039F000E5520001F66B020EF76FDF6A4AD0020E45
:103A00000001016AF625006EF7510122010E00C087
:103A1000DBFF020E01C0DBFF010EDBCF00F0DB0697
:103A2000020EDBCF01F001E2DB060050011004E0E2
:103A3000E66A85DCE552F0D7E66881DCE5521F0BCB
:103A4000050826E1E80EF36E010EF3CFDBFFFD0E55
:103A5000F36E020EF3CFDBFFE66871DCE552FF0880
:103A60000EE0D950010FE96EDACFEAFFEE50ED100B
:103A700006E0010EDB06020EEFE2DB06EDD7D950C1
:103A8000010FE96EDACFEAFFEE50ED1001E0DF6AD8
:103A900082DCDF50006E030EE15C02E2E16AE55277
:103AA000E16E0050E552E7CFD9FF1200D9CFE6FF13
:103AB000E1CFD9FF050EE126030EF0C0DBFF040EB7
:103AC000F1C0DBFFD950030FE96EDACFEAFFEE5009
:103AD000ED1009E0030EDB06DBCFF0F0040E01E28F
:103AE000DB06DBCFF1F0030EF2C0DBFF040EF3C008
:103AF000DBFFD950030FE96EDACFEAFFEE50ED108D
:103B000009E0030EDB06DBCFF2F0040E01E2DB0678
:103B1000DBCFF3F0050EE15C02E2E16AE552E16E13
:083B2000E552E7CFD9FF1200C6
:083B2800D9CFE6FFE1CFD9FF80
:103B3000020EE12605EC26F0F3CFDEFFF4CFDDFF29
:103B4000DECF00F0DDCF01F00050011010E0FD0EDF
:103B5000DBCFE6FFFE0EDBCFE6FFDECFE6FFDDCFFD
:103B6000E6FF55D8E552E552E552E5520CD0FD0E80
:103B7000DBCFE9FFFE0EDBCFEAFF040EE926000EE5
:103B8000EA22010EEF6E020EE15C02E2E16AE5520A
:103B9000E16EE552E7CFD9FF1200D9CFE6FFE1CFC2
:103BA000D9FF0D0EE126D9CFE9FFDACFEAFF700E7B
:103BB000EE6E6C0EEE6E610EEE6E740EEE6E660EB6
:103BC000EE6E6F0EEE6E720EEE6E6D0EEE6E2E0ED1
:103BD000EE6E680EEE6E650EEE6E780EEE6EEE6AAE
:103BE0000001FA6BFB6BFC6BD9CFE6FFDACFE6FF87
:103BF000BCEC25F0E552E5520D0EE15C02E2E16A13
:103C0000E552E16EE552E7CFD9FF12001200D9CF9D
:103C1000E6FFE1CFD9FF030EE126DF6A010EDB6A82
:103C2000020EDB6AFB0EDBCFE9FFFC0EDBCFEAFF07
:103C3000EF6AFB0EDBCFE9FFFC0EDBCFEAFFEE52B3
:103C4000FAC0EEFFFBC0EEFFFCC0EEFFDF6A010E24
:103C5000DB6A020EDB6AD9CFE9FFDACFEAFF200E7A
:103C6000EE5C000EEE58000EEF581FE2FB0EDBCFAD
:103C7000E9FFFC0EDBCFEAFF050EE926000EEA2283
:103C8000E9CF00F0EACF01F0DB50E924E96E010E44
:103C9000DB50EA20EA6EEF6AD9CFE9FFDACFEAFF1C
:103CA000EE2A000EEE22EE22D6D7FB0EDBCFE9FF86
:103CB000FC0EDBCFEAFF250EE926000EEA22EF6AB2
:103CC000FD0EDBCFE9FFDB2AFE0EDBCFEAFF01E3CF
:103CD000DB2AEF503A0801E048D2FD0EDBCFE9FFC6
:103CE000DB2AFE0EDBCFEAFF01E3DB2AEF50E66EB4
:103CF00049DAE552F3CF00F0F4CF01F0040ED8908A
:103D000000360136E804FBE1FB0EDBCFE9FFFC0ED9
:103D1000DBCFEAFF0050EF26FD0EDBCFE9FFDB2A09
:103D2000FE0EDBCFEAFF01E3DB2AEF50E66E2ADA74
:103D3000E552F3CF00F0FB0EDBCFE9FFFC0EDBCF4B
:103D4000EAFFF350EF26FD0EDBCFE9FFDB2AFE0E84
:103D5000DBCFEAFF01E3DB2AEF50E66E13DAE55230
:103D6000F338006AF00B016E026AFB0EDBCFE9FF4D
:103D7000FC0EDBCFEAFFEE520050EE260150EE22A1
:103D80000250EE22FD0EDBCFE9FFDB2AFE0EDBCF79
:103D9000EAFF01E3DB2AEF50E66EF4D9E552F3CFF8
:103DA00001F0006A026AFB0EDBCFE9FFFC0EDBCFFD
:103DB000EAFFEE520050EE260150EE220250EE22B3
:103DC000FD0EDBCFE9FFDB2AFE0EDBCFEAFF01E3CE
:103DD000DB2AEF50E66ED6D9E552F3CF00F0F4CFF0
:103DE00001F0040ED89000360136E804FBE1026AC7
:103DF000FB0EDBCFE9FFFC0EDBCFEAFFEE520050FB
:103E0000EE260150EE220250EE22FD0EDBCFE9FF3E
:103E1000DB2AFE0EDBCFEAFF01E3DB2AEF50E66E82
:103E2000B1D9E552F3CF00F0F4CF01F0026AFB0EF6
:103E3000DBCFE9FFFC0EDBCFEAFFEE52F350EE26BC
:103E40000150EE220250EE22DF6A010EDB6A020E02
:103E5000DB6AFD0EDBCFE9FFDB2AFE0EDBCFEAFFDC
:103E600001E3DB2AEF50E66E8DD9E552F3CF00F087
:103E7000F4CF01F0D89000360136026AD9CFE9FFBD
:103E8000DACFEAFF0050EE260150EE220250EE2279
:103E9000FD0EDBCFE9FFDB2AFE0EDBCFEAFF01E3FD
:103EA000DB2AEF50E66E6ED9E552F4CF01F0026ADC
:103EB000D9CFE9FFDACFEAFFF350EE260150EE2228
:103EC0000250EE22FB0EDBCFE9FFFC0EDBCFEAFF58
:103ED000040EE926000EEA22DFCFEFFFDF6A010EB3
:103EE000DB6A020EDB6AFB0EDBCFE9FFFC0EDBCFE9
:103EF000EAFFEF50E824006E016A026AD9CFE9FFB9
:103F0000DACFEAFFE850EE5C0150EE580250EE586E
:103F100070E2FD0EDBCFE9FFDB2AFE0EDBCFEAFF0E
:103F200001E3DB2AEF50E66E2DD9E552F3CF05F021
:103F3000F4CF06F0040ED89005360636E804FBE10F
:103F4000FB0EDBCFE9FFFC0EDBCFEAFF050EE92617
:103F5000000EEA22E9CF00F0EACF01F0DFCF02F055
:103F6000010EDBCF03F0020EDBCF04F0D890043259
:103F700003320232E9500224E96EEA500320EA6E6D
:103F80000550EF26FD0EDBCFE9FFDB2AFE0EDBCF6F
:103F9000EAFF01E3DB2AEF50E66EF4D8E552F3CFF7
:103FA00005F0FB0EDBCFE9FFFC0EDBCFEAFF050ED1
:103FB000E926000EEA22DFCF02F0010EDBCF03F08C
:103FC000020EDBCF04F0D890043203320232E95003
:103FD0000224E96EEA500320EA6EF350EF26D9CFAF
:103FE000E9FFDACFEAFF020EEE26000EEE22EE2205
:103FF0007AD7FD0EDBCFE9FFDB2AFE0EDBCFEAFF2F
:1040000001E3DB2AEF50E66EBDD8E552F3CF00F0B6
:10401000F4CF01F0040ED89000360136E804FBE13D
:10402000FB0EDBCFE9FFFC0EDBCFEAFF250EE92616
:10403000000EEA220050EF26FD0EDBCFE9FFDB2A5F
:10404000FE0EDBCFEAFF01E3DB2AEF50E66E9AD8E3
:10405000E552FB0EDBCFE9FFFC0EDBCFEAFF250EBE
:10406000E926000EEA22F350EF26FB0EDBCFE9FF34
:10407000FC0EDBCFEAFF040EE926000EEA22EF5029
:10408000040874E10001FA6BFB6BFC6BFB0EDBCFE9
:10409000E9FFFC0EDBCFEAFF050EE926000EEA225F
:1040A000EFCF00F0016A026A00AE02D00168026838
:1040B00000C0DFFF010E01C0DBFF020E02C0DBFF0C
:1040C000180ED9CFE9FFDACFEAFFE8501F0BEECF89
:1040D00000F0EECF01F0EECF02F006E0D89000360F
:1040E00001360236E806FAE100500001FA270150D5
:1040F000FB230250FC23FB0EDBCFE9FFFC0EDBCFE2
:10410000EAFF050EE926000EEA22010EE926000E5E
:10411000EA22EFCF00F0016A026A00AE02D0016825
:10412000026800C0DFFF010E01C0DBFF020E02C00B
:10413000DBFF100ED9CFE9FFDACFEAFFE8501F0B03
:10414000EECF00F0EECF01F0EECF02F006E0D89017
:10415000003601360236E806FAE100500001FA277F
:104160000150FB230250FC2301D0000E006E030E11
:10417000E15C02E2E16AE552E16E0050E552E7CF10
:10418000D9FF1200D9CFE6FFE1CFD9FFE652DF68B1
:10419000FE0EDB50460A4AE0030A46E0010A42E00E
:1041A000070A3EE0010A3AE0030A36E0270A32E055
:1041B000030A3AE0010A36E0070A32E0010A2EE07B
:1041C000030A2AE0580A24E0010A20E00F0A1CE052
:1041D000010A18E0030A14E0010A10E0070A0CE0E3
:1041E000010A08E0030A04E0010A23E1DF6A22D0A1
:1041F000010E1DD0020E1BD0030E19D0040E17D0D5
:10420000050E15D0060E13D0070E11D0080E0FD0D4
:10421000090E0DD00F0E0BD00A0E09D00B0E07D0D1
:104220000C0E05D00D0E03D00E0E01D00F0EDF6E5A
:1042300001D0DF68DF50016AF36E01C0F4FFE55280
:08424000E552E7CFD9FF12009F
:08424800D58E93EF25F0E1EFA4
:1042500023F0D9CFE6FFE1CFD9FF470EE126CDEC21
:104260001DF0D9CFE6FFDACFE6FF94EC1DF0E55262
:10427000E552040EDB046EE0040EDB50F2E1010EA9
:10428000DBCF00F0020EDBCF01F0030EDBCF02F03C
:10429000036A000E005C800E0158000E0258000EEA
:1042A0000358DFE3010EDBCF04F0020EDBCF05F095
:1042B000030EDBCF06F0076AF80E045CFF0E05580C
:1042C000010E0658000E0758CCE2DFCFE6FF010EC4
:1042D000DBCFE6FF020EDBCFE6FF030EDBCFE6FF10
:1042E000D950260FE66E000EDA20E66E87DA006EF1
:1042F000060EE15E0050460EDB6ADF50F36E460E9E
:10430000DBCFF4FFF350F45CACE2D950260F016E22
:10431000DACF02F0460EDB500F010124E96E000EE9
:10432000DA20EA6EEFCF00F0D950050F036EDACF36
:1043300004F0460EDB500324E96E000EDA20EA6E2C
:10434000EF50005C04E006EC1EF0000E06D0460EB6
:10435000DB2AD3D706EC1EF0010E006E470EE15C9F
:1043600002E2E16AE552E16E0050E552E7CFD9FF83
:104370001200D9CFE6FFE1CFD9FF6D0EE126CDECDB
:104380001DF065DF660EDB6A800EF36E670EF3CFFD
:10439000DBFF680EDB6A660EDBCF00F0670EDBCF5B
:1043A00001F0680EDBCF02F0400E0026000E012265
:1043B0000222690E00C0DBFF6A0E01C0DBFF6B0E3C
:1043C00002C0DBFFD950260FE66E000EDA20E66E43
:1043D00075DAE552E552D9CFE6FFDACFE6FF94EC85
:1043E0001DF0E552E552040EDB0401E1C8D1040ED4
:1043F000DB5001E0BBD1010EDBCF00F0020EDBCFC2
:1044000001F0030EDBCF02F0036A000E005C800EA9
:104410000158000E0258000E035801E274D1010E3B
:10442000DBCF04F0020EDBCF05F0030EDBCF06F08E
:10443000076AF80E045CFF0E0558010E0658000EC0
:10444000075801E360D1690EDBCF00F06A0EDBCFC5
:1044500001F06B0EDBCF02F0D950010FE96EDACF1D
:10446000EAFF0050EE5C0150EE580250EE5801E3B6
:10447000FDD0DFCF03F0046A056AD950010FE96E61
:10448000DACFEAFFEE500324006EEE500420016EF6
:10449000EE500520026ED950690FE96EDACFEAFFBF
:1044A0000050EE5C0150EE580250EE5833E3DFCF7F
:1044B000E6FFD950050FE66E000EDA20E66ED95001
:1044C000260F026EDACF03F0010EDBCF07F0020EEB
:1044D000DBCF08F0030EDBCF09F0D950660FE96E91
:1044E000DACFEAFFEE50075C046EEE500858056E16
:1044F000EE500958066E02500424006EDA50052072
:10450000016E00C0E6FFE66EF7D90A6E050EE15EA9
:104510000A5061D7690EDBCF03F06A0EDBCF04F0DF
:104520006B0EDBCF05F0D950010FE96EDACFEAFF51
:10453000EE50035C006EEE500458016EEE500558CC
:10454000026E6C0E00C0DBFFDBCFE6FFD950050F1B
:10455000E66E000EDA20E66ED950260F026EDACF34
:1045600003F0010EDBCF07F0020EDBCF08F0030EE5
:10457000DBCF09F0D950660FE96EDACFEAFFEE50D3
:10458000075C046EEE500858056EEE500958066E32
:1045900002500424006EDA500520016E00C0E6FFD0
:1045A000E66EAAD90A6E050EE15E0A50400EE66E6E
:1045B000660EDBCFE6FF670EDBCFE6FF680EDBCFD4
:1045C000E6FFD950260FE66E000EDA20E66E3ED9E1
:1045D000006E060EE15E0050D950660FE96EDACF2C
:1045E000EAFF400EEE26000EEE22EE22660EDBCF34
:1045F00000F0670EDBCF01F0680EDBCF02F0400E5B
:104600000026000E01220222690E00C0DBFF6A0EA6
:1046100001C0DBFF6B0E02C0DBFFD950260FE66E38
:10462000000EDA20E66E4AD9E552E5526C0EDB50F8
:10463000DF5CE66ED950050F026EDACF03F06C0E28
:10464000DB5000010224006E000EDA20016E00C073
:10465000E6FFE66ED950260FE66E000EDA20E66E13
:104660004BD9046E050EE15E0450B5D6400EE66EE1
:10467000660EDBCFE6FF670EDBCFE6FF680EDBCF13
:10468000E6FFD950260FE66E000EDA20E66EDED881
:10469000006E060EE15E0050D950260FE66E000E49
:1046A000DA20E66E0BD9E552E552010EDBCF00F0C1
:1046B000020EDBCF01F0030EDBCF02F0036AC00E67
:1046C0000016036A660E00C0DBFF670E01C0DBFF49
:1046D000680E02C0DBFF660EDBCF00F0670EDBCF9B
:1046E00001F0680EDBCF02F0400E0026000E012222
:1046F0000222690E00C0DBFF6A0E01C0DBFF6B0EF9
:1047000002C0DBFF70D6010EDBCF00F0020EDBCF64
:1047100001F0030EDBCF02F0036AF80E005CFF0E1F
:104720000158010E0258000E035820E3400EE66EB9
:10473000660EDBCFE6FF670EDBCFE6FF680EDBCF52
:10474000E6FFD950260FE66E000EDA20E66E7ED820
:10475000006E060EE15E0050D950260FE66E000E88
:10476000DA20E66EABD8E552E55209D0D9CFE6FFA4
:10477000DACFE6FF94EC1DF0E552E55234D6400E58
:10478000E66E660EDBCFE6FF670EDBCFE6FF680E58
:10479000DBCFE6FFD950260FE66E000EDA20E66E7C
:1047A00055D8006E060EE15E005006EC1EF06D0E50
:1047B000E15C02E2E16AE552E16EE552E7CFD9FF42
:1047C0001200D9CFE6FFE1CFD9FFE652DF6AF66AE1
:1047D000800EF76EF86AA684A688DF50DF2A5F088D
:1047E00006E362D8040EF726000EF822F6D7A69448
:1047F000A698E552E552E7CFD9FF1200D9CFE6FFE0
:10480000E1CFD9FFE652DF6AFA0EDBCFF6FFFB0EEF
:10481000DBCFF7FFFC0EDBCFF8FFDF50DF2A006EA7
:10482000F90EDB50005C0DE20900FD0EDBCFE9FF65
:10483000DB2AFE0EDBCFEAFF01E3DB2AF5CFEFFF39
:10484000ECD7E552E552E7CFD9FF1200D9CFE6FF0A
:10485000E1CFD9FFE652DF6AFA0EDBCFF6FFFB0E9F
:10486000DBCFF7FFFC0EDBCFF8FF400EDF5C14E27E
:10487000F90EDB50DF5C0CE2FD0EDBCFE9FFDB2A3B
:10488000FE0EDBCFEAFF01E3DB2AEF50F56E01D02D
:10489000F5680D00DF2AE9D70A00A68405D8E5529D
:1048A000E552E7CFD9FF1200F29E550EA76EAA0E71
:1048B000A76EA682A6B2FED7F28E1200D9CFE6FF6F
:1048C000E1CFD9FFE652DF6ADF6A400EDF5C0FE21C
:1048D000FD0EDBCFE9FFFE0EDBCFEAFFDF50E92460
:1048E000E96E000EEA20EA6EEF68DF2AEED7E552A5
:1048F000E552E7CFD9FF1200D9CFE6FFE1CFD9FFCC
:10490000E652DF6AFA0EDB50DF5C19E2FB0EDBCF0A
:10491000E9FFDB2AFC0EDBCFEAFF01E3DB2AEF50E5
:10492000E66EFD0EDBCFE9FFDB2AFE0EDBCFEAFFF2
:1049300001E3DB2AE552E750EF6EDF2AE3D7E552C9
:08494000E552E7CFD9FF120098
:08494800DACFE4FFE652E5526C
:10495000E5CFDAFF1100D8CFE4FFE0CFE4FFE46E4B
:10496000DACFE4FFE2CFDAFFE9CFE4FFEACFE4FFFA
:10497000F6CFE4FFF7CFE4FFF8CFE4FFF5CFE4FF95
:10498000F3CFE4FFF4CFE4FFFACFE4FFFBCFE4FF83
:1049900000EE1EF0100EE80403E3EECFE4FFFBD7B9
:1049A00000EE00F01E0EE80403E3EECFE4FFFBD7B9
:1049B000E652F250040B06E0F250200B03E0F294B2
:1049C00056EC1DF0E55200EE1DF01E0EE80403E368
:1049D000E5CFEDFFFBD700EE2DF0100EE80403E36A
:1049E000E5CFEDFFFBD7E5CFFBFFE5CFFAFFE5CF46
:1049F000F4FFE5CFF3FFE5CFF5FFE5CFF8FFE5CF17
:104A0000F7FFE5CFF6FFE5CFEAFFE5CFE9FFE5CF1A
:104A1000DAFFE550E5CFE0FFE5CFD8FF1000D9CFB2
:104A2000E6FFE1CFD9FF020EE12656D880B243D08F
:104A300024EC21F07B0EE66E500EE66E000EE66E64
:104A40007DEC26F0E552E552E552B9EC21F0760E08
:104A5000E66E500EE66E000EE66E7DEC26F0E55238
:104A6000E552E5526C0EE66E500EE66E000EE66EF6
:104A70007DEC26F0E552E552E55229EC21F00009E3
:104A80000CE0670EE66E500EE66E000EE66E7DECF4
:104A900026F0E552E552E5520BD0620EE66E500E5E
:104AA000E66E000EE66E7DEC26F0E552E552E5522C
:104AB00068EC26F006D0F29AF29EF29CD59E00EFAA
:104AC00040F0FFD7020EE15C02E2E16AE552E16EDE
:104AD000E552E7CFD9FF1200D9CFE6FFE1CFD9FFEA
:104AE000E652C26A0F0EC16E0F0148694969896AB0
:104AF0008A6A8B6A926A936A946AF19E9282430EE2
:104B0000D56EF28AF194D08ED66AF28EF28C70EC69
:104B100026F0140EE66EEDEC26F0E552E552E55275
:064B2000E7CFD9FF1200EF
:0A4B2600949C9398938A949E8B8CC4
:104B3000200EE66EE66AE66AC60EE66E000EE66EC9
:104B40002BEC27F0006E050EE15E005088EC1AF0A9
:104B5000000911E1600EE66E000EE66E57EC0AF0F9
:104B6000E552E552000906E1C80EE66EEDEC26F0CE
:104B7000E552010C000C000CD9CFE6FFE1CFD9FFC4
:104B8000FD0EDBCFE6FFFE0EDBCFE6FFC60EE66EC8
:104B9000000EE66E45EC27F0E552E552E552E5528F
:104BA00000090BE1E66AE66AE66AE66A7FEC15F060
:104BB000E552E552E552E55224D0FD0EDBCFE6FF8B
:104BC000FE0EDBCFE6FFC60EE66E000EE66E65EC6F
:104BD00027F0E552E552E552E552FD0EDBCFE6FF48
:104BE000FE0EDBCFE6FFD9EC0EF0E552E5520009F0
:104BF00007E1C80EE66EEDEC26F0E552010E01D09D
:104C0000000EE552E7CFD9FF1200D9CFE6FFE1CF82
:104C1000D9FF050EE126030EDB6A020EDB6A030EE6
:104C2000DB50E76E040EE7CFDBFFD9CFE6FFDACF2C
:104C3000E6FF010EE66EE66AD950030FE66E000E3F
:104C4000DA20E66ED1EC0FF0006E060EE15E005049
:104C5000000923E1D9CFE9FFDACFEAFF010EEE1810
:104C600018E1ED5016E1020EDBCFF3FFDB2AF35023
:104C7000EA6A860FE96E000EEA22030EDBCFEFFF31
:104C8000040EDB500D08CBE1030EDB500A08C7E130
:104C900007D0020EDB50000803E3F36AF46A0ED07B
:104CA000020EDB50EA6A860FE96E000EEA22EF6A16
:104CB000860E006E000E00C0F3FFF46E050EE15C80
:104CC00002E2E16AE552E16EE552E7CFD9FF120058
:104CD000000EE66EE66A57EC0AF0E552E552120065
:104CE0008B808B82840EE66E500EE66E000EE66EB2
:104CF00004D8E552E552E5521200D9CFE6FFE1CFE4
:104D0000D9FFFC0EDBCFF6FFFD0EDBCFF7FFFE0E6B
:104D1000DBCFF8FF0800F55016E0D950FC0FE96E24
:104D2000FF0EDA20EA6EEFCFF6FFEE2AEFCFF7FFA5
:104D3000000EEE22EFCFF8FFEE220800F550E66EEF
:104D400029D8E552DED7E552E7CFD9FF1200D9CFF7
:104D5000E6FFE1CFD9FFFD0EDBCFE9FFFE0EDBCF93
:104D6000EAFFEF500EE0FD0EDBCFE9FFDB2AFE0E7F
:104D7000DBCFEAFF01E3DB2AEF50E66E0BD8E5520A
:104D8000EAD7E552E7CFD9FF12000C0EE66E02D843
:104D9000E5521200D9CFE6FFE1CFD9FFE652080E67
:104DA000DF6EFE0EDBCFFFF08B908B940001FFBF18
:104DB0008B848B92010EE66E10D8E5528B82010E29
:104DC000E66E0BD8E552FF37DF06DF50EEE18B8051
:104DD000E552E552E7CFD9FF1200D9CFE6FFE1CF88
:104DE000D9FFFE0EDBCFF3FFDB06F350000906E030
:104DF000280EE66E65EC28F0E552F3D7E552E7CFD2
:044E0000D9FF1200C4
:0C4E0400D9CFE6FFDACFE6FFFA0EE3CFCD
:104E1000D9FFFB0EE3CFDAFFFC0EE3CFE9FFFD0E77
:104E2000E3CFEAFFF80EE35003E1F90EE35008E0A8
:104E3000F80EE30602E2F90EE306DE50EE5CF2E065
:104E4000F36EFF0EE3CFDAFFE552FF0EE3CFD9FF9B
:104E5000E552F3501200FE0EE3CFE9FFFF0EE3CF61
:104E6000EAFFE9CFF3FFEACFF4FFFB0EE35003E1E3
:104E7000FC0EE35009E0FB0EE30602E2FC0EE30643
:104E8000FD0EE350EE6EF1D71200D9CFE6FFDACF78
:104E9000E6FFFA0EE3CFD9FFFB0EE3CFDAFFFC0EFD
:104EA000E3CFE9FFFD0EE3CFEAFFDE50EF5C02E166
:104EB000EE66FBD7F36EFF0EE3CFDAFFE552FF0E8F
:104EC000E3CFD9FFE552F3501200D9CFE6FFDACF96
:104ED000E6FFFA0EE3CFD9FFFB0EE3CFDAFFFC0EBD
:104EE000E3CFE9FFFD0EE3CFEAFFE9CFF3FFEACF1F
:104EF000F4FFDECFEFFFEE66FCD7FF0EE3CFDAFF65
:0C4F0000E552FF0EE3CFD9FFE55212008E
:044F0C00060EF66E29
:104F1000000EF76E000EF86E00010900F550EB6F01
:104F20000900F550EC6F03E1EB6701D03DD00900BB
:104F3000F550E66F0900F550E76F0900F550E86F8E
:104F400009000900F550E96E0900F550EA6E090004
:104F500009000900F550E96F0900F550EA6F0900F2
:104F60000900F6CFEDF0F7CFEEF0F8CFEFF0E6C0A6
:104F7000F6FFE7C0F7FFE8C0F8FF0001E95302E1E0
:104F8000EA5307E00900F550EE6EE907F8E2EA0798
:104F9000F9D7EDC0F6FFEEC0F7FFEFC0F8FF000154
:0A4FA000EB07000EEC5BBFD7120018
:064FAA0022502702F3CFA4
:104FB0001EF0F4CF1FF02802F3501F26000EF4203D
:104FC000206E22502902F3502026000EF420216E7C
:104FD00022502A02F350212623502702F3501F2685
:104FE000F4502022000E212223502802F3502026C4
:104FF000F450212223502902F35021262450270265
:10500000F3502026F450212224502802F350212668
:0A50100025502702F350212612005C
:06501A00216A206A1F6AF2
:105020001E6A200EE76ED8902236233624362536A7
:105030001E361F362036213627501E5C28501F583A
:10504000295020582A50215809E327501E5E285025
:105050001F5A2950205A2A50215A222AE72EE4D7D3
:0250600012003C
:0E5062004641494C0050415353000A0D56651B
:10507000726966793A00444F4E450050726F67720C
:0E508000616D3A004C43443A204F4B0D0A003C
:02508E00B00E62
:10509000F36E00EE00F00E0E01D81200EA6002D0AE
:0E50A000EE6AFCD7F350E9601200EE6AFCD70E
:0250AE001CEEF6
:1050B00000F02CEE00F0F86A2D9C86EC27F073ECE3
:0A50C00028F00FEC25F0FBD71200DA
:0650CA00FF0EE3502E6E04
:1050D0001B0E00D001D0200EE76EE72EFED72E2E3D
:0650E000FAD700D0120017
:0250E6001200B6
:020000040001F9
:01FFF800AC5C
:01FFF900F512
:01FFFA0012F4
:01FFFB00FF06
:01FFFC007193
:01FFFD00F211
:01FFFE00FF03
:01FFFF00FB06
:00000001FF
