:020000040000FA
:0600000075EF40F0120054
:0600080004EF40F01200BD
:060018000CEF40F01200A5
:0680000075EF40F01200D4
:0680080083EF40F01200BE
:068018008CEF40F01200A5
:02802900000055
:04802C00290EF66EB5
:10803000800EF76E000EF86E00010900F550656FB6
:108040000900F550666F03E1656701D03DD0090076
:10805000F550606F0900F550616F0900F550626FCF
:1080600009000900F550E96E0900F550EA6E0900B3
:1080700009000900F550636F0900F550646F0900AD
:108080000900F6CF67F0F7CF68F0F8CF69F060C06D
:10809000F6FF61C0F7FF62C0F8FF0001635302E121
:1080A000645307E00900F550EE6E6307F8E26407D9
:1080B000F9D767C0F6FF68C0F7FF69C0F8FF000195
:0A80C0006507000E665BBFD71200D3
:0680CA00B00EF36E00EEA3
:1080D00000F00E0E01D81200EA6002D0EE6AFCD762
:0A80E000F350E9601200EE6AFCD7CD
:0680EA001CEE00F02CEE7C
:1080F00000F0F86A019C16EC40F08FEC40F08DEC3B
:0681000040F0FBD7120065
:0A810600DACFE4FFE2CFDAFFE65221
:0E811000E552E5CFDAFF1100120000D0120098
:02811E0012004D
:020000040001F9
:01FFF800AC5C
:01FFF900F512
:01FFFA0012F4
:01FFFB00FF06
:01FFFC007193
:01FFFD00F211
:01FFFE00FF03
:01FFFF00FB06
:00000001FF
