:020000040000FA
:06000000FBEF40F01200CE
:0600080004EF40F01200BD
:060018000CEF40F01200A5
:06800000FBEF40F012004E
:0680080016EF40F012002B
:068018001FEF40F0120012
:02802900000055
:04802C00DACFE4FFC4
:10803000E2CFDAFFE652E552E5CFDAFF1100120097
:10804000D9CFE6FFE1CFD9FFFD0EDBCF00F0DB0695
:10805000FE0EDBCF01F001E2DB060050011006E06E
:10806000280EE66E09EC41F0E552EED7E552E7CF77
:10807000D9FF1200D9CFE6FFE1CFD9FF020EE126EA
:10808000DE6ADD6ADE6ADD6ADECF00F0DDCF01F098
:10809000FD0EDBCF02F0FE0EDBCF03F00150031824
:1080A000E8AE02D0033404D00250005C0350015803
:1080B0000CE2E80EE66E030EE66EC2DFE552E55214
:1080C000DF2A010E01E3DB2ADFD7020EE15C02E2C8
:1080D000E16AE552E16EE552E7CFD9FF1200C26ACC
:1080E0000F0EC16E0F0148694969896A8A6A8B6AF5
:1080F000926A936A946A1200F2DF89908980C80EAE
:10810000E66EE66A9DDFE552E5528990C80EE66E9E
:10811000E66A96DFE552E5528980C80EE66EE66AA9
:108120008FDFE552E5528990010EE66EE66AA2DF26
:08813000E552E552E3D712000D
:08813800290EF66E800EF76EB1
:10814000000EF86E00010900F550656F0900F5504A
:10815000666F03E1656701D03DD00900F550606F9F
:108160000900F550616F0900F550626F09000900C0
:10817000F550E96E0900F550EA6E090009000900A2
:10818000F550636F0900F550646F09000900F6CFE0
:1081900067F0F7CF68F0F8CF69F060C0F6FF61C014
:1081A000F7FF62C0F8FF0001635302E1645307E088
:1081B0000900F550EE6E6307F8E26407F9D767C06F
:1081C000F6FF68C0F7FF69C0F8FF00016507000E01
:0681D000665BBFD7120040
:0A81D600B00EF36E00EE00F00E0E86
:1081E00001D81200EA6002D0EE6AFCD7F350E960D1
:0681F0001200EE6AFCD74C
:0A81F6001CEE00F02CEE00F0F86A19
:10820000059C9CEC40F017EC41F07CEC40F0FBD777
:0282100012005A
:0E821200FF0EE350066E1B0E00D001D0200EB2
:0E822000E76EE72EFED7062EFAD700D012002A
:02822E0012003C
:020000040001F9
:01FFF800AC5C
:01FFF900F512
:01FFFA0012F4
:01FFFB00FF06
:01FFFC007193
:01FFFD00F211
:01FFFE00FF03
:01FFFF00FB06
:00000001FF
