:020000040000FA
:060000008AEF41F012003E
:068000008AEF41F01200BE
:02800600000078
:068008000FEF40F0120032
:02800E0012005E
:0880180018EF40F01200DACF6E
:10802000E4FFE2CFDAFFE652E552E5CFDAFF1100D6
:10803000D8CFE4FFE0CFE4FFE46EDACFE4FFE2CF95
:10804000DAFFE9CFE4FFEACFE4FFF6CFE4FFF7CFB2
:10805000E4FFF5CFE4FFF3CFE4FFF4CFE4FFFACF82
:10806000E4FF00EE52F0020EE80403E3EECFE4FF7B
:10807000FBD700EE55F0000EE80403E3EECFE4FF7B
:10808000FBD7E652F250040B18E0F250200B15E03B
:10809000F29400016A2B000E6B23E80E6A1902E1CC
:1080A000030E6B190AE16A6B6B6B570EE66E830E5B
:1080B000E66E89EC40F0E552E552E55200EE54F0F0
:1080C000000EE80403E3E5CFEDFFFBD700EE53F02D
:1080D000020EE80403E3E5CFEDFFFBD7E5CFFAFF9F
:1080E000E5CFF4FFE5CFF3FFE5CFF5FFE5CFF7FFF1
:1080F000E5CFF6FFE5CFEAFFE5CFE9FFE5CFDAFF11
:0C810000E550E5CFE0FFE5CFD8FF100010
:04810C008B808B8257
:108110001200D9CFE6FFE1CFD9FFFD0EDBCFF6FF8E
:10812000FE0EDBCFF7FF0800F5500FE0FD0EDBCFB2
:10813000F6FFDB2AFE0EDBCFF7FF01E3DB2A0800A8
:10814000F550E66E29D8E552E8D7E552E7CFD9FFDA
:108150001200D9CFE6FFE1CFD9FFFD0EDBCFE9FF5B
:10816000FE0EDBCFEAFFEF500EE0FD0EDBCFE9FFA6
:10817000DB2AFE0EDBCFEAFF01E3DB2AEF50E66EDF
:108180000BD8E552EAD7E552E7CFD9FF12000C0E23
:10819000E66E02D8E5521200D9CFE6FFE1CFD9FF53
:1081A000E652080EDF6EFE0EDBCF6CF08B908B94E8
:1081B00000016CBF8B848B92010EE66E10D8E552E5
:1081C0008B82010EE66E0BD8E5526C37DF06DF506E
:1081D000EEE18B80E552E552E7CFD9FF1200D9CF0F
:1081E000E6FFE1CFD9FFFE0EDBCFF3FFDB06F35056
:1081F000000906E0280EE66E98EC41F0E552F3D750
:08820000E552E7CFD9FF12009F
:08820800060EF66E800EF76E03
:10821000000EF86E00010900F550656F0900F55079
:10822000666F03E1656701D03DD00900F550606FCE
:108230000900F550616F0900F550626F09000900EF
:10824000F550E96E0900F550EA6E090009000900D1
:10825000F550636F0900F550646F09000900F6CF0F
:1082600067F0F7CF68F0F8CF69F060C0F6FF61C043
:10827000F7FF62C0F8FF0001635302E1645307E0B7
:108280000900F550EE6E6307F8E26407F9D767C09E
:10829000F6FF68C0F7FF69C0F8FF00016507000E30
:0682A000665BBFD712006F
:0A82A6000AD84C0EE66E830EE66E59
:1082B00089EC40F0E552E552FFD7120000016A6BED
:1082C0006B6BC26A0F0EC16E0F0148694969896AFA
:1082D0008A6A8B6A926A936A946A9282430ED56E16
:1082E00086EC40F0F28AF194D08ED66AF28EF28C4F
:0482F000D58E120015
:0C82F400B00EF36E00EE00F00E0E01D88C
:108300001200EA6002D0EE6AFCD7F350E960120076
:04831000EE6AFCD73E
:0C8314001CEE00F02CEE00F0F86A539C08
:1083200004EC41F007EC40F053EC41F0FBD71200B5
:10833000FF0EE350546E1B0E00D001D0200EE76EEE
:0C834000E72EFED7542EFAD700D0120012
:04834C005374617293
:0983500074696E672E2E002E00E8
:00000001FF
